:020000040800F2
:100000008005002001010008C1190008031800083C
:10001000BD1900086D0100082D1F00080000000038
:10002000000000000000000000000000F1190008BE
:100030007101000800000000C5190008F31900084C
:100040001B0100081B0100081B0100081B01000820
:100050001B0100081B0100081B0100081B01000810
:100060001B0100081B0100081B0100081B01000800
:100070001B0100081B0100081B0100081B010008F0
:100080001B0100081B0100081B0100081B010008E0
:100090001B0100081B0100081B0100081B010008D0
:1000A0001B0100081B0100081B0100081B010008C0
:1000B0001B0100081B0100081B0100081B010008B0
:1000C0001B0100081B0100081B0100081B010008A0
:1000D0001B0100081D1F00081B0100081B01000870
:1000E0001B0100081B0100081B010008DFF80CD0F1
:1000F00000F02AF800480047891F0008800500200A
:100100000648804706480047FEE7FEE7FEE7FEE7B1
:10011000FEE7FEE7FEE7FEE7FEE7FEE7611A0008FE
:10012000ED000008D2B201E000F8012B491EFBD21D
:1001300070470022F6E710B513460A4604461946F2
:10014000FFF7F0FF204610BD064C074D06E0E068C3
:1001500040F0010394E8070098471034AC42F6D30E
:10016000FFF7C8FF442000086420000800BFFEE736
:10017000704772B600BFFEE70146002291F82100E9
:10018000022808D00420886300BF002081F82000E6
:1001900000BF012070470868006820F00E000B685F
:1001A00018600868006820F001000B68186091F87A
:1001B000403001209840CB6B5860012081F821002D
:1001C00000BF002081F8200000BF1046E2E70000D9
:1001D00070B50446002594F82100022803D00420BD
:1001E000A063012548E02068006820F00E00216827
:1001F00008602068006820F00100216808601F493D
:100200002068884201D1012026E01C491431206871
:10021000884201D110201FE0184928312068884207
:1002200001D1801518E015493C312068884201D180
:10023000801411E0114950312068884202D14FF4F6
:10024000803009E00D4964312068884202D14FF4C2
:10025000801001E04FF080700849083948600120A3
:1002600084F8210000BF002084F8200000BF606BEC
:1002700010B12046616B8847284670BD08000240D7
:1002800070B5044600F0AEF906462546681C02D05B
:1002900004480078054400BF00F0A4F9801BA84280
:1002A000FAD370BD100000202DE9F8470346002264
:1002B00094466EE14FF0010808FA02F4D1F800808C
:1002C00008EA0400A0427DD1DFF8D8A2D1F804806A
:1002D000A8EB0A09D0453AD014DCB8F1030F50D08E
:1002E00009DCB8F1000F31D0B8F1010F1CD0B8F122
:1002F000020F49D120E0B8F1110F18D0B8F1120F58
:1003000042D11EE0B9F5881F25D006DCB9F5803F43
:1003100020D0B9F5801F37D11AE0B9F5001F18D0E9
:10032000B9F5041F30D117E0D1F80CC02DE0D1F899
:100330000C8008F1040C28E0D1F80C8008F1080CBE
:1003400023E0D1F80C8008F10C0C1EE000BF00BFC8
:1003500000BF00BF00BF00BFD1F80880B8F1000F98
:1003600002D14FF0040C0BE0D1F80880B8F1010F76
:1003700003D14FF0080C1C6102E04FF0080C5C61E7
:1003800003E04FF0000C00E000BF00BFFF2801D8E1
:10039000984601E003F104084646FF2802D84FEAD8
:1003A000820803E0A2F108084FEA88084746D6F819
:1003B00000804FF00F0909FA07F928EA09080CFA3A
:1003C00007F900E088E048EA0908C6F80080D1F89B
:1003D000048008F08058B8F1805F7DD100BFDFF85D
:1003E000C881D8F8188048F00108DFF8BC91C9F836
:1003F0001880C846D8F8188008F00108CDF80080A9
:1004000000BF00BF4FEAB9384FEA920958F82950A7
:100410004FEA82784FEA18794FF00F0808FA09F886
:1004200025EA0805DFF88481434502D14FF0000832
:1004300016E0DFF87C81434502D14FF001080FE060
:10044000DFF87081434502D14FF0020808E0DFF881
:100450006881434502D14FF0030801E04FF00408E2
:100460004FEA82794FEA197908FA09F848EA05054E
:10047000DFF848814FEA920948F82950D1F8048002
:1004800008F48018B8F5801F0AD1DFF83481D8F855
:10049000008048EA0008DFF82891C9F8008009E0E8
:1004A000DFF81C81D8F8008028EA0008DFF81091F6
:1004B000C9F80080D1F8048008F40018B8F5001FCE
:1004C00010D1DFF8FC8008F10408D8F8008048EA71
:1004D0000008DFF8EC9000E05AE009F10409C9F8DF
:1004E00000800DE0DFF8D88008F10408D8F800801B
:1004F00028EA0008DFF8C89009F10409C9F800806B
:10050000D1F8048008F40038B8F5003F0ED1DFF8C8
:10051000B080A8F10408D8F8008048EA0008DFF8A5
:10052000A090A9F10409C9F800800DE0DFF89080DF
:10053000A8F10408D8F8008028EA0008DFF88090C5
:10054000A9F10409C9F80080D1F8048008F48038C2
:10055000B8F5803F0ED1DFF86880A8F10808D8F818
:10056000008048EA0008DFF85890A9F10809C9F8A6
:1005700000800DE0DFF84880A8F10808D8F8008076
:1005800028EA0008DFF83890A9F10809C9F80080C6
:10059000521CD1F8008038FA02F87FF48BAEBDE827
:1005A000F887000000001110001002400008014010
:1005B000000C0140001001400014014008000140FF
:1005C0000804014010B5C26821EA020302EA0104EE
:1005D00043EA0443036110BD0AB1016101E00B0469
:1005E0000361704701480068704700001400002054
:1005F00070B504460CB9012070BD94F83D0028B9CF
:10060000002084F83C00204600F0DAF8242084F82A
:100610003D002068006820F0010021680860206823
:10062000006840F40040216808602068006820F4F9
:1006300000402168086000F09DFA05465C4960684A
:10064000884206D85B48854201D2012007E000209D
:1006500005E05948854201D2012000E00020012830
:1006600000D1C9E75548B5FBF0F62068406820F096
:100670003F003043216848604D496068884201D896
:10068000701C07E04FF4967070434FF47A71B0FB22
:10069000F1F0401C2168096A21F03F0108432168FC
:1006A000086243496068884214D8681E616849003E
:1006B000B0FBF1F0401CC0F30B00042801D2042071
:1006C0003DE0681E61684900B0FBF1F0401CC0F3DA
:1006D0000B0034E0A06838B9681E616801EB410185
:1006E000B0FBF1F0401C0AE0681E616801EBC1023A
:1006F00002EB0111B0FBF1F0401C40F4804000051A
:10070000000D01D101201AE0A06848B9681E616897
:1007100001EB4101B0FBF1F0401CC0F30B000CE019
:10072000681E616801EBC10202EB0111B0FBF1F040
:10073000401CC0F30B0040F4804040F400402168AE
:10074000C9694CF6FF72914308432168C861D4E936
:10075000070108432168096821F0C00108432168A6
:100760000860D4E9031008432168896848F2FF3221
:100770009143084321688860D4E905010843216852
:10078000C96821F0FF0108432168C860206800683B
:1007900040F001002168086000202064202084F8D7
:1007A0003D000020206384F83E0000BF24E70000E5
:1007B000A086010080841E0000093D0040420F0019
:1007C00010B586B004460020029003900490059076
:1007D00015492068884225D100BF1448806940F03F
:1007E0000800124988610846806900F008000190FD
:1007F00000BF00BFC020029012200390032005908C
:1008000002A90B48FFF750FD00BF0848C06940F43B
:1008100000100649C8610846C06900F40010019044
:1008200000BF00BF06B010BD0054004000100240E1
:10083000000C014003480068034909780844014955
:1008400008607047140000201000002010B5084810
:10085000006840F0100006490860032000F0AAF884
:10086000002000F007F800F02BF8002010BD000079
:100870000020024070B504460E4800784FF47A71AB
:10088000B1FBF0F00C490968B1FBF0F5284600F027
:10089000E9FB08B1012070BD102C07D200222146CF
:1008A000501E00F049F80548046001E00120F2E71D
:1008B0000020F0E710000020180000200C000020AD
:1008C00008B500BF1148806940F001000F498861F8
:1008D0000846806900F00100009000BF00BF00BF23
:1008E0000846C06940F08050C8610846C06900F001
:1008F0008050009000BF00BF00BF0549486820F04D
:10090000E06040F00070486000BF08BD0010024089
:100910000000014010B50146084600280ADB00F03F
:100920001F0301229A4043094FF0E02404EB8303A4
:10093000C3F8002100BF10BD2DE9F05F80460D46D1
:100940001646002701F0F4FA074639462A46334690
:1009500001F00700C0F1070ABAF1040F02D94FF005
:10096000040A01E0C0F1070AD14600F1040ABAF115
:10097000070F02D24FF0000A01E0A0F1030AD446AB
:100980004FF0010A0AFA09FAAAF1010A0AEA020A70
:100990000AFA0CFA4FF0010B0BFA0CFBABF1010B4E
:1009A0000BEA030B4AEA0B042146404601F0C8FA61
:1009B000BDE8F09F00BF00F00702064B19684FF634
:1009C000FF031940044B0B4343EA0221014B19601A
:1009D00000BF70470CED00E00000FA0570B504465A
:1009E0000D460CB9012070BD5A48006800F00700A0
:1009F000A8420ED25748006820F007002843554906
:100A000008600846006800F00700A84201D00120F5
:100A1000E9E7207800F0020002281DD1207800F0DC
:100A20000400042805D14C48406840F4E0604A497D
:100A30004860207800F00800082805D14648406842
:100A400040F46050444948604348406820F0F0005A
:100A5000A168084340494860207810F0010F37D062
:100A60006068012806D13C48006810F4003F12D1AC
:100A70000120B8E76068022806D13748006810F006
:100A8000007F08D10120AEE73348006810F0020F64
:100A900001D10120A7E73048406820F003006168D9
:100AA00008432D494860FFF79DFD064608E0FFF723
:100AB00099FD801B41F28831884201D9032092E7D9
:100AC0002548406800F00C006168B0EB810FEED162
:100AD0002048006800F00700A8420ED91D480068B1
:100AE00020F0070028431B4908600846006800F012
:100AF0000700A84201D0012075E7207800F004002B
:100B0000042807D11448406820F4E060E1680843F5
:100B100011494860207800F00800082808D10E48E4
:100B2000406820F46050216940EAC1000A494860E9
:100B300000F040F808494968C1F30311074A515CC5
:100B4000C8400749086007480068FFF793FE002087
:100B500049E7000000200240001002402A2000085F
:100B6000180000200C0000200148006870470000B9
:100B70001800002000B5FFF7F7FF04494968C1F3EA
:100B80000221034A515CC84000BD00000010024031
:100B90003A20000800B5FFF7E7FF04494968C1F3B0
:100BA000C221034A515CC84000BD00000010024051
:100BB0003A20000870B50021002200240023002004
:100BC000134D696811F00C051ED0042D02D0082DBC
:100BD00019D101E00F4819E00F4DC1F38346AB5D19
:100BE00011F4803F0AD00A4D6D68C5F340450B4EA5
:100BF000725D084D5D43B5FBF2F402E0084D03FB66
:100C000005F4204602E000BF024800BF00BF70BDEF
:100C10000010024000127A00182000082820000866
:100C200000093D00F8B504460CB90120F8BD207854
:100C300010F0010F75D0F948406800F00C0004284E
:100C40000CD0F648406800F00C00082810D1F3489A
:100C5000406800F48030B0F5803F09D1EF4800686B
:100C600010F4003F5DD0606800285AD10120DDE714
:100C700000BF6068B0F5803F06D1E848006840F4E6
:100C80008030E649086028E0606858B9E3480068A9
:100C900020F48030E14908600846006820F4802094
:100CA00008601AE06068B0F5A02F0BD1DB4800683F
:100CB00040F48020D94908600846006840F480303C
:100CC00008600AE0D548006820F48030D349086005
:100CD0000846006820F48020086000BF606880B18A
:100CE000FFF780FC054606E0FFF77CFC401B64280C
:100CF00001D903209AE7C948006810F4003FF3D0F7
:100D00000FE0FFF76FFC054606E0FFF76BFC401BAA
:100D1000642801D9032089E7C048006810F4003F27
:100D2000F3D1207800F00200022855D1BB4840687A
:100D300010F00C0F0AD0B948406800F00C000828E9
:100D400018D1B648406810F4803F13D1B34800680A
:100D500010F0020F04D02069012801D0012065E7BE
:100D6000AE48006820F0F800616940EAC100AB4974
:100D7000086031E02069E0B10120A9490860FFF76F
:100D800031FC054606E0FFF72DFC401B022801D987
:100D900003204BE7A148006810F0020FF3D09F48F2
:100DA000006820F0F800616940EAC1009B490860D2
:100DB00012E000209A490860FFF714FC054606E09F
:100DC000FFF710FC401B022801D903202EE79348AF
:100DD000006810F0020FF3D1207800F00800082816
:100DE0002BD1A069B0B101208E490860FFF7FAFB52
:100DF000054606E0FFF7F6FB401B022801D9032059
:100E000014E78648406A10F0020FF3D0012000F08A
:100E1000DBFD12E0002083490860FFF7E3FB054695
:100E200006E0FFF7DFFB401B022801D90320FDE6A7
:100E30007A48406A10F0020FF3D1207800F00400E5
:100E4000042872D100277548C06910F0805F0ED168
:100E500000BF7248C06940F080507049C8610846C0
:100E6000C06900F08050009000BF00BF01276E48AD
:100E7000006810F4807F15D16B48006840F48070E2
:100E800069490860FFF7AEFB054606E0FFF7AAFBDD
:100E9000401B642801D90320C8E66348006810F4A9
:100EA000807FF3D000BFE068012806D15B48006A6C
:100EB00040F001005949086227E0E06858B95748F6
:100EC000006A20F00100554908620846006A20F0D7
:100ED0000400086219E0E06805280BD14F48006A59
:100EE00040F004004D4908620846006A40F00100E5
:100EF00008620AE04948006A20F001004749086298
:100F00000846006A20F00400086200BFE06898B15B
:100F1000FFF768FB054609E0FFF764FB401B41F261
:100F20008831884202D9032080E620E03B48006AED
:100F300010F0020FF0D011E0FFF754FB054608E077
:100F4000FFF750FB401B41F28831884201D9032052
:100F50006CE63248006A10F0020FF1D1012F05D182
:100F60002E48C06920F080502C49C86100BFE0695C
:100F7000C0B32A48406800F00C0008285CD0E06943
:100F800002283DD1002026490866FFF72BFB0546C5
:100F900006E0FFF727FB401B022801D9032045E6A6
:100FA0001E48006810F0007FF3D1206AB0F5803F42
:100FB00007D11A48406820F40030A1680843174957
:100FC0004860D4E9080108431449496821F47411C0
:100FD000084312494860012011490866FFF702FBE7
:100FE000054607E03AE0FFF7FDFA401B022801D969
:100FF00003201BE60948006810F0007FF3D02DE0C5
:10100000002007490866FFF7EDFA05460EE0FFF7F6
:10101000E9FA401B022809D9032007E60010024024
:101020000000424280044242007000400C480068C8
:1010300010F0007FEBD111E0E069012800D1F5E567
:101040000748466806F48031206A814204D106F4DC
:101050007011606A814201D00120E7E50020E5E5DA
:101060000010024070B504462546681EB0F1807F2E
:1010700001D301200FE0681E4FF0E02148610F21ED
:101080004FF0FF3000F05CFF00204FF0E02188615E
:1010900007200861002070BD30B502460B4600BF36
:1010A00092F83C00012801D1022030BD012082F8D5
:1010B0003C0000BF022082F83D00106844681068C0
:1010C000816824F070041868044310684460104D6F
:1010D0001068A8420BD01068B0F1804F07D00D4DBA
:1010E0001068A84203D00C4D1068A84205D121F029
:1010F00080015868014310688160012082F83D003A
:1011000000BF002082F83C0000BF00BFCDE7000018
:10111000002C0140000400400008004010B50446C7
:101120000CB9012010BD94F83D0028B9002084F8C6
:101130003C00204600F026F8022084F83D00211DE6
:10114000206800F08FFC012084F8460000BF84F87E
:101150003E0001213F20015540200155412001550D
:1011600000BF00BF012084F8420043200155442005
:1011700001554520015500BF012084F83D000020A5
:10118000D0E7000008B5094A016891420DD100BFBF
:101190000749896941F40061054A916111468969ED
:1011A00001F40061009100BF00BF08BD002C0140A8
:1011B000001002402DE9F04104460D46002700BF13
:1011C00094F83C00012802D10220BDE8F081012002
:1011D00084F83C0000BF022084F83D002068866847
:1011E00026F0770626F47F46206886602868502817
:1011F00033D00CDC202850D004DC00284BD0102841
:1012000051D149E0302849D040284CD139E06028FC
:101210002DD0702807D0B0F5805F03D0B0F5005F07
:1012200041D10DE041E0D5E902136A68206800F081
:1012300053FC2068866846F077062068866034E0B4
:10124000D5E902136A68206800F046FC20688068CF
:1012500040F480402168886027E0EA686968206877
:1012600000F04EFC5021206800F041FC1DE0EA68CF
:101270006968206800F057FC6021206800F037FCA6
:1012800013E0EA686968206800F03AFC40212068B1
:1012900000F02DFC09E000BF00BF00BF29682068F6
:1012A00000F025FC01E0012700BF00BF012084F809
:1012B0003D0000BF002084F83C0000BF384684E7B2
:1012C000F8B504460E46174694F8420020282ED161
:1012D00006B10FB90120F8BD012020630020606332
:1012E0003A463146204600F07FFD0546EDB9206BB9
:1012F000012819D100BF00200090206800680090EC
:1013000020684068009000BF00BF00BF00BF216898
:101310000C3151E8001F41F0100021680C3141E808
:101320000002002AF3D100E001252846D3E702207D
:10133000D1E7000070B505460C4605480460102250
:1013400004492846FFF7BCFF01200349087070BD1F
:10135000000000201C000020050000207047000055
:101360002DE9F84F0446206805682068C6682068A3
:1013700047694FF00009CA4605F00F09B9F1000F9F
:101380000AD115F0200F07D016F0200F04D0204608
:1013900000F02DFCBDE8F88FB9F1000F7AD017F0FE
:1013A000010F02D116F4907F74D015F0010F06D012
:1013B00016F4807F03D0606C40F00100606415F08B
:1013C000040F06D017F0010F03D0606C40F002004C
:1013D000606415F0020F06D017F0010F03D0606CA7
:1013E00040F00400606415F0080F09D016F0200FDB
:1013F00002D117F0010F03D0606C40F00800606468
:10140000606C002845D015F0200F05D016F0200F95
:1014100002D0204600F0EBFB20684069C0F3801A40
:10142000606C10F0080F02D1BAF1000F2CD02046EA
:1014300000F097FB2068406910F0400F20D000BFFB
:1014400000BF2168143151E8001F21F040002168DD
:10145000143141E80002002AF3D100BFE06B50B123
:101460007548E16B4863E06BFEF7B2FE88B1E06B54
:10147000416B88470DE02046FFF770FF09E009E067
:101480002046FFF76BFF04E02046FFF767FF0020D0
:1014900060647FE7206B012874D115F0100F71D0C4
:1014A00016F0100FFBD000BF0020009020680068ED
:1014B000009020684068009000BF00BF206840692D
:1014C00010F0400F5FD0E06B006840681FFA80F8B2
:1014D000B8F1000F55D0A08D404552DDA4F82E8004
:1014E000E06B8069202843D000BF00BF21680C3129
:1014F00051E8001F21F4807021680C3141E800029E
:10150000002AF3D100BF00BF00BF2168143151E8A9
:10151000001F21F001002168143141E80002002A77
:10152000F3D100BF00BF00BF2168143151E8001F94
:1015300021F040002168143141E80002002AF3D173
:1015400000BF202084F842000020206300BF00BFBD
:1015500021680C3151E8001F21F0100021680C3186
:1015600041E80002002AF3D100BFE06BFEF704FE61
:1015700002206063A08DE28D801A81B22046FFF7C1
:10158000D9FE07E742E0A08DE18D401A1FFA80F8EE
:10159000E08DD0B3B8F1000F37D000BF00BF216895
:1015A0000C3151E8001F21F4907021680C3141E8A2
:1015B0000002002AF3D100BF00BF00BF2168143130
:1015C00051E8001F21F001002168143141E80002B8
:1015D000002AF3D100BF202084F8420000202063BD
:1015E00000BF00BF21680C3151E8001F21F010003E
:1015F00021680C3141E80002002AF3D100BF02202B
:10160000606341462046FFF795FEC3E615F0800F64
:1016100006D016F0800F03D0204600F005FCB9E696
:1016200015F0400F06D016F0400F03D0204600F012
:10163000CEFAAFE600BFADE64F1B000810B504467A
:101640000CB9012010BDA06900B100E000BF94F802
:10165000410028B9002084F84000204600F02AF814
:10166000242084F841002068C06820F400502168DC
:10167000C860204600F03AFB2068006920F49040E2
:10168000216808612068406920F02A0021684861CB
:101690002068C06840F400502168C8600020606481
:1016A000202084F8410084F842000020606300BFDD
:1016B000C8E7000010B586B00446002002900390F1
:1016C000049005901E492068884236D100BF1D480D
:1016D000806940F480401B4988610846806900F4B5
:1016E0008040019000BF00BF00BF0846806940F005
:1016F000040088610846806900F00400019000BF82
:1017000000BF48150290022003900320059002A913
:101710000D48FEF7C9FD4FF4806002900020039051
:10172000049002A90848FEF7BFFD002211462520BB
:10173000FFF702F92520FFF7EDF806B010BD000015
:1017400000380140001002400008014070472DE9B8
:10175000F84F04460E46174699464FF0000A94F893
:10176000410020284AD106B117B90120BDE8F88F01
:1017700000206064212084F84100FEF733FF824698
:10178000A784E784A068B0F5805F04D1206910B910
:101790000025B04602E035464FF000081BE05346F6
:1017A000002280212046CDF8009000F06EFB08B1A9
:1017B0000320DBE745B9B8F80000C0F30800216852
:1017C000486008F1020803E02878216848606D1C31
:1017D000E08C401EE084E08C0028E0D153460022DB
:1017E00040212046CDF8009000F04FFB08B10320C7
:1017F000BCE7202084F841000020B7E70220B5E7CD
:10180000704700BFFEE7000000B585B000200190E2
:1018100002900390049000BF2C48806940F01000B3
:101820002A4988610846806900F01000009000BFD6
:1018300000BF00BF0846806940F02000886108466C
:10184000806900F02000009000BF00BF00BF084684
:10185000806940F0040088610846806900F0040057
:10186000009000BF00BF00BF0846806940F008003C
:1018700088610846806900F00800009000BF00BF42
:1018800000224FF400511248FEF7A6FE0122114635
:101890001048FEF7A1FE4FF4005001900120029085
:1018A000002003900220049001A90948FEF7FCFCE7
:1018B000012001900290002003900320049001A9D0
:1018C0000448FEF7F1FC05B000BD00000010024026
:1018D000001001400008014010B50B480B4908609A
:1018E0000B484860002109488160C1604FF4804185
:1018F0000161002141618161C1610162FEF778FEF1
:1019000008B1FEF736FC10BD005400409C000020DA
:10191000801A060000B587B000200390049005905F
:10192000069001900290154815490860092048600A
:101930000021134881604FF6FF71C16000210161F1
:1019400041618161FFF7EAFB08B1FEF712FC4FF439
:101950008050039003A90A48FFF72CFC08B1FEF75A
:1019600008FC00200190029001A90548FFF794FBB4
:1019700008B1FEF7FEFB07B000BD0000002C0140DF
:10198000F000002010B50B480B4908604FF4E1301F
:101990004860002108488160C16001610C214161FB
:1019A00000218161C161FFF749FE08B1FEF7E1FB4B
:1019B00010BD0000003801403801002000BFFEE7E4
:1019C00000BFFEE77047000008B508490968C9086C
:1019D0004FF47A72B1FBF2F14143009100BF00BFB6
:1019E00000994A1E00920029F9D108BD1800002074
:1019F000704710B5FEF71EFF10BD00B58FB028214F
:101A000005A8FEF796FB14216846FEF792FB01201D
:101A10000590000406900020079001200990022004
:101A20000C90C1030D914FF4E0110E9105A8FFF742
:101A3000F9F808B1FEF79DFB0F20009002200190FD
:101A4000002002904FF48060039000200490022157
:101A50006846FEF7C3FF08B1FEF78BFB0FB000BD71
:101A60007047000010B50268184B984208D0B0F1DA
:101A7000804F05D0164B984202D0164B984203D1A6
:101A800022F070024B681A43104B984208D0B0F114
:101A9000804F05D00E4B984202D00E4B984203D196
:101AA00022F44072CB681A4322F080034C6943EA67
:101AB000040202608B68C3620B688362034B984226
:101AC00001D10B6903630123436110BD002C014068
:101AD000000400400008004030B50C46816821F445
:101AE0007F4142EA032525432943816030BD0A46F0
:101AF000816821F0700142F007031943816070474B
:101B000030B50B461446026A056A25F001050562E8
:101B1000816921F0F00141EA041122F00A021A431E
:101B20008161026230BD30B50B461446026A056A17
:101B300025F010050562816921F4704141EA043104
:101B400022F0A00242EA03128161026230BD70B548
:101B500005466C6A0020E085E0842046FFF7FEFB26
:101B600070BD00BF00BF02680C3252E8002F22F4A3
:101B7000907102680C3242E80013002BF3D100BFD1
:101B800000BF00BF0268143252E8002F22F00101AA
:101B90000268143242E80013002BF3D100BF016B3E
:101BA00001290ED100BF00BF02680C3252E8002F9D
:101BB00022F0100102680C3242E80013002BF3D12E
:101BC00000BF202180F8421000210163704710B54A
:101BD00004462068C06820F040002168C8602020CA
:101BE00084F841002046FFF70BFE002010BDF8B539
:101BF000044694F84200222875D1A068B0F5805FB1
:101C00000CD1206950B90025A66A20684068C0F34D
:101C100008003080A06A801CA06215E0A56A00263A
:101C2000A068B0F5805F03D0A06828B9206918B912
:101C300020684068287004E02068406800F07F0059
:101C40002870A06A401CA062E08D401E0004000CB9
:101C5000E08546D12068C06820F020002168C86077
:101C60002068C06820F480702168C86020684069DE
:101C700020F0010021684861202084F84200002003
:101C80006063206B012826D10020206300BF00BFC5
:101C900021680C3151E8001F21F0100021680C313F
:101CA00041E80002002AF3D100BF2068006800F07C
:101CB000100010280AD100BF0020009020680068A2
:101CC000009020684068009000BF00BFA18D2046B2
:101CD000FFF730FB02E02046FFF738FD0020F8BD9B
:101CE00001E00020FBE70220F9E7000070B50446A0
:101CF0002168096921F44051E268114322681161A9
:101D00002269A1681143626941EA02052168C96834
:101D100041F20C62914329432268D16021684969EC
:101D200021F44071A2691143226851612D4A216852
:101D3000914202D1FEF72EFF01E0FEF71BFF00EB00
:101D4000C00101EB001162689200B1FBF2F100EBFF
:101D5000C00202EB001263689B00B2FBF3F2642343
:101D6000B2FBF3F202EBC20303EB0212A1EB82011E
:101D7000322202EB01116422B1FBF2F101F0F00119
:101D800000EBC00202EB001263689B00B2FBF3F2AF
:101D90006423B2FBF3F201EB021200EBC00101EB92
:101DA000001163689B00B1FBF3F100EBC00303EB90
:101DB00000136668B600B3FBF6F36426B3FBF6F3D4
:101DC00003EBC30606EB0313A1EB8301322303EB02
:101DD00001116423B1FBF3F101F00F0111442268FA
:101DE000916070BD0038014010B5034699629A8534
:101DF000DA8500205864222083F84200186928B14F
:101E00001868C06840F480701C68E0601868406919
:101E100040F001001C6860611868C06840F0200054
:101E20001C68E060002010BD014691F841002128A7
:101E300029D18868B0F5805F0BD1086948B90A6A72
:101E40001088C0F308000B685860086A801C08629C
:101E500005E00B6A581C086218780B685860C88C3B
:101E6000401E0004000CC8840BD10868C06820F034
:101E700080000B68D8600868C06840F040000B68BC
:101E8000D860002070470220FCE72DE9F0410446AD
:101E90000D4617469846069E33E0701C31D02EB191
:101EA000FEF7A0FBA0EB0800B0422AD900BF00BF9C
:101EB00021680C3151E8001F21F4D07021680C31E9
:101EC00041E80002002AF3D100BF00BF00BF216833
:101ED000143151E8001F21F001002168143141E85C
:101EE0000002002AF3D100BF202084F8410084F8CA
:101EF000420000BF002084F8400000BF0320BDE87E
:101F0000F081206800682840A84201D1012000E04B
:101F10000020B842C1D00020F1E7000010B502480F
:101F2000FFF71EFA10BD00003801002000BFFEE7D9
:101F300002480068C0F30220704700000CED00E08A
:101F400010B5002804DB0A07130E054A135406E0F7
:101F50000A07140E034A00F00F031B1FD45410BDD0
:101F600000E400E018ED00E002E008C8121F08C11C
:101F7000002AFAD170477047002001E001C1121F0A
:101F8000002AFBD170470000FEF760FCFFF735FD2B
:101F9000FFF73AFCFFF7A0FCFFF7F4FCFFF7BAFCF1
:101FA0003220FEF76DF9012251031548FEF714FBAC
:101FB000102214491448FFF783F919244FF4967539
:101FC0002012124908704C7028128870CD7016E0EB
:101FD0000F48007801280AD100200D4908700D48EB
:101FE000008882B2FF2307490748FFF7B0FB4FF490
:101FF00000510348FEF7E6FAFA20FEF741F9E7E759
:10200000001001401C0000203801002006000020C4
:10201000050000200000002002030405060708094F
:102020000A0B0C0D0E0F1010010200000000000042
:102030000000010203040607080900000000010275
:102040000304000064200008000000201C000000C1
:10205000681F0008802000081C00002064050000A4
:10206000781F0008000000000000000000000000D1
:102070001000000001000000000000000024F40037
:04000005080000ED02
:00000001FF
