:020000040800F2
:10000000D00F0020010100089D260008E320000811
:1000100099260008ED020008D53000080000000015
:100020000000000000000000000000007D2A000821
:100030003103000800000000A52800087F2A0008FE
:100040001B0100081B0100081B0100081B01000820
:100050001B0100081B0100081B0100081B01000810
:100060001B0100081B0100081B0100081B01000800
:100070001B0100081B0100081B0100081B010008F0
:100080001B0100081B010008F50100081B01000806
:100090001B0100081B0100081B0100081B010008D0
:1000A0001B0100081B0100081B0100081B010008C0
:1000B0001B0100081B0100081B0100081B010008B0
:1000C0001B0100081B0100081B0100081B010008A0
:1000D0001B010008A92F00081B0100081B010008D4
:1000E0001B0100081B0100081B010008DFF80CD0F1
:1000F00000F040F800480047E9340008D00F002025
:100100000648804706480047FEE7FEE7FEE7FEE7B1
:10011000FEE7FEE7FEE7FEE7FEE7FEE7ED2A000862
:10012000ED000008D2B201E000F8012B491EFBD21D
:1001300070470022F6E710B513460A4604461946F2
:10014000FFF7F0FF204610BD30B50B4601460020FA
:100150002022012409E021FA02F59D4205D303FA89
:1001600002F5491B04FA02F52844151EA2F101020A
:10017000F1DC30BD064C074D06E0E06840F00103BD
:1001800094E8070098471034AC42F6D3FFF7B2FF6B
:10019000783600089836000870B501EB020410F8B4
:1001A000015B15F0070301D110F8013B2A1106D1BC
:1001B00010F8012B03E010F8016B01F8016B5B1ED6
:1001C000F9D12B0705D40023521E0FD401F8013BAF
:1001D000FAE710F8013B02F10202A1EB030303E08E
:1001E00013F8015B01F8015B521EF9D5A142D6D389
:1001F000002070BD10B5024800F06BF910BD000082
:10020000BC0A002070B5044600252068806810F004
:10021000010F22D02068806820F0010021688860EA
:1002200000F09EFD054613E000F09AFD401B0228F9
:100230000ED92068806810F0010F09D0A06A40F044
:100240001000A062E06A40F00100E062012070BD91
:100250002068806810F0010FE6D10020F7E7000069
:1002600038B504460025002000902068806810F012
:10027000010F34D12068806840F001002168886057
:10028000184800681849B0FBF1F0009002E00098AF
:10029000401E009000980028F9D100F061FD05464D
:1002A00018E000F05DFD401B022813D9206880682B
:1002B00010F0010F0ED1A06A40F01000A062E06AB9
:1002C00040F00100E06200BF002084F8240000BF7D
:1002D000012038BD2068806810F0010FE1D00020B7
:1002E000F7E700001806002040420F0000BFFEE7BD
:1002F0001FB50120009000200190012002900320F2
:1003000003906946014800F085FB1FBD00080140CD
:100310001FB501200090019000200290032003905F
:100320006946024800F076FB1FBD0000000801404E
:10033000704700EB8002510000BF0A00A1F10101EB
:10034000FBD1704772B600BFFEE7000010B504484D
:1003500000F02AFA024800F0B8F80446A0B210BD36
:10036000BC0A00207047000038B502460023002078
:10037000009000BF92F82400012801D1022038BD6E
:10038000012082F8240000BF4868072812D21068B4
:10039000406B0C79641E04EB84051F24AC40A04321
:1003A0000D796D1E05EB85050C68AC402043146883
:1003B000606327E048680D2812D21068006B0C7942
:1003C000E41F04EB84051F24AC40A0430D79ED1F0E
:1003D00005EB85050C68AC4020431468206311E0F0
:1003E0001068C06A0C790D3C04EB84051F24AC40F6
:1003F000A0430D790D3D05EB85050C68AC4020430D
:100400001468E06208680A2812D31068C0680C7883
:100410000A3C04EB44050724AC40A0430D780A3D98
:1004200005EB45058C68AC4020431468E0600FE0A4
:10043000106800690C7804EB44050724AC40A04325
:100440000D7805EB45058C68AC40204314682061AD
:100450000868102802D00868112827D1174C1068A6
:10046000A0421ED11068806810F4000F1ED11068E1
:10047000806840F400001468A0600868102815D156
:100480000F4800680F4CB0FBF4F000EB8000400018
:10049000009002E00098401E009000980028F9D1DA
:1004A00004E0906A40F020009062012300BF002029
:1004B00082F8240000BF184661E7000000240140D4
:1004C0001806002040420F00704701460868C06CC3
:1004D000704770B50446206805682068466806F0D5
:1004E000200020282DD105F00200022829D1A06A81
:1004F00010F0100F03D1A06A40F40070A0622068D1
:10050000806800F46020B0F5602F13D1207B88B99B
:100510002068406820F0200021684860A06A20F42C
:100520008070A062A06A10F4805F03D1A06A40F0DE
:100530000100A0622046FFF7C7FF6FF0120021689C
:10054000086006F08000802839D105F004000428F6
:1005500035D1A06A10F0100F03D1A06A40F400500A
:10056000A0622068806800F4E040B0F5E04F0DD054
:100570002068406810F4806F1AD12068806800F409
:100580006020B0F5602F13D1207B88B920684068C7
:1005900020F0800021684860A06A20F48050A062AA
:1005A000A06A10F4807F03D1A06A40F00100A0622D
:1005B0002046FFF7D7FE6FF00C002168086006F0B8
:1005C000400040280DD115F0010F0AD0A06A40F478
:1005D0008030A062204600F0A5F86FF0010021688D
:1005E000086070BD2DE9F041044600270025002673
:1005F000A84614B90120BDE8F081A06810B1207DA3
:1006000000B100BFA06A30B90020E06284F8240085
:10061000204600F089F82046FFF7F4FD0746A06A5F
:1006200010F0100F73D1002F71D1A06A20F4885000
:1006300040F00200A062E16960680843217B40EA63
:1006400041000643A068B0F5807F02D0A068012871
:1006500002D14FF4807000E000200543207D012886
:1006600011D1207B38B9A069401E4FF4006141EAE6
:100670004030054307E0A06A40F02000A062E06A35
:1006800040F00100E0622068406820F4694028439F
:10069000216848602068806820490840304321680C
:1006A0008860A068B0F5807F02D0A068012802D1E0
:1006B0004FF4807000E00020B0F5807F03D1208AE5
:1006C000401E4FEA00582068C06A20F4700040EADB
:1006D00008002168C8622068806811490840B0425B
:1006E00008D10020E062A06A20F0020040F0010082
:1006F000A06211E0A06A20F0020040F01000A062A9
:10070000E06A40F00100E062012705E0FFE7A06A2F
:1007100040F01000A062012738466CE7FDF7E1FFCA
:10072000FE0E1FFF7047000010B586B00446002083
:1007300002900390049005901849206888422AD1BD
:1007400000BF1748806940F4007015498861084669
:10075000806900F40070019000BF00BF00BF084630
:10076000806940F0040088610846806900F0040058
:10077000019000BF00BF022002900320039002A955
:10078000084800F047F900221146122000F044FD0D
:10079000122000F02FFD06B010BD00000024014023
:1007A000001002400008014070B50446002500BF5B
:1007B00094F82400012801D1022070BD012084F8A2
:1007C000240000BF2046FFF74BFD0546002D7DD1DC
:1007D000A06A40F60161884340F48070A0623F49FE
:1007E0002068884208D13E48006810F4702F01D17B
:1007F000012002E0002000E0012078B1A06A20F48E
:100800008010A0622068406810F4806F20D0A06A39
:1008100020F4005040F48050A06219E0A06A40F437
:100820008010A0622E49091F2068884203D02B49FE
:100830002068884204D12A48006800F4806000E003
:10084000002028B1A06A20F4005040F48050A0623B
:10085000A06A10F4805F04D0E06A20F00600E06235
:1008600001E00020E06200BF002084F8240000BF07
:10087000C01E216808602068406840F020002168A0
:1008800048602068806800F46020B0F5602F16D1C1
:1008900012492068884208D11148006810F4702F6E
:1008A00001D1012002E0002000E0012038B12068E1
:1008B000806840F4A000216888600CE006E02068B1
:1008C000806840F480102168886004E000BF002048
:1008D00084F8240000BF28466FE70000002801408C
:1008E000042401400146002291F82100022808D08A
:1008F0000420886300BF002081F8200000BF012091
:1009000070470868006820F00E000B6818600868DF
:10091000006820F001000B68186091F84030012059
:100920009840CB6B5860012081F8210000BF002067
:1009300081F8200000BF1046E2E7000070B50446D1
:10094000002594F82100022803D00420A06301258B
:1009500048E02068006820F00E00216808602068E8
:10096000006820F00100216808601F492068884263
:1009700001D1012026E01C4914312068884201D1B0
:1009800010201FE0184928312068884201D18015C5
:1009900018E015493C312068884201D1801411E0EB
:1009A000114950312068884202D14FF4803009E06B
:1009B0000D4964312068884202D14FF4801001E073
:1009C0004FF08070084908394860012084F8210000
:1009D00000BF002084F8200000BF606B10B12046EB
:1009E000616B8847284670BD0800024070B5044618
:1009F00000F0B6F906462546681C02D00448007887
:100A0000054400BF00F0ACF9801BA842FAD370BDCA
:100A1000100600202DE9F8470346002294466EE1B7
:100A20004FF0010808FA02F4D1F8008008EA040047
:100A3000A0427DD1DFF8D8A2D1F80480A8EB0A0942
:100A4000D0453AD014DCB8F1030F50D009DCB8F12E
:100A5000000F31D0B8F1010F1CD0B8F1020F49D10D
:100A600020E0B8F1110F18D0B8F1120F42D11EE0FA
:100A7000B9F5881F25D006DCB9F5803F20D0B9F53F
:100A8000801F37D11AE0B9F5001F18D0B9F5041F3F
:100A900030D117E0D1F80CC02DE0D1F80C8008F16E
:100AA000040C28E0D1F80C8008F1080C23E0D1F800
:100AB0000C8008F10C0C1EE000BF00BF00BF00BF9F
:100AC00000BF00BFD1F80880B8F1000F02D14FF08D
:100AD000040C0BE0D1F80880B8F1010F03D14FF0FE
:100AE000080C1C6102E04FF0080C5C6103E04FF061
:100AF000000C00E000BF00BFFF2801D8984601E0CD
:100B000003F104084646FF2802D84FEA820803E0B2
:100B1000A2F108084FEA88084746D6F800804FF04F
:100B20000F0909FA07F928EA09080CFA07F900E0A1
:100B300088E048EA0908C6F80080D1F8048008F087
:100B40008058B8F1805F7DD100BFDFF8C881D8F848
:100B5000188048F00108DFF8BC91C9F81880C84631
:100B6000D8F8188008F00108CDF8008000BF00BF59
:100B70004FEAB9384FEA920958F829504FEA82787B
:100B80004FEA18794FF00F0808FA09F825EA080526
:100B9000DFF88481434502D14FF0000816E0DFF80A
:100BA0007C81434502D14FF001080FE0DFF87081EE
:100BB000434502D14FF0020808E0DFF86881434561
:100BC00002D14FF0030801E04FF004084FEA8279A8
:100BD0004FEA197908FA09F848EA0505DFF848816B
:100BE0004FEA920948F82950D1F8048008F4801897
:100BF000B8F5801F0AD1DFF83481D8F8008048EAC0
:100C00000008DFF82891C9F8008009E0DFF81C81AE
:100C1000D8F8008028EA0008DFF81091C9F80080B1
:100C2000D1F8048008F40018B8F5001F10D1DFF8DF
:100C3000FC8008F10408D8F8008048EA0008DFF8D2
:100C4000EC9000E05AE009F10409C9F800800DE0D9
:100C5000DFF8D88008F10408D8F8008028EA0008F6
:100C6000DFF8C89009F10409C9F80080D1F80480C0
:100C700008F40038B8F5003F0ED1DFF8B080A8F1D5
:100C80000408D8F8008048EA0008DFF8A090A9F12D
:100C90000409C9F800800DE0DFF89080A8F104088D
:100CA000D8F8008028EA0008DFF88090A9F104094C
:100CB000C9F80080D1F8048008F48038B8F5803F86
:100CC0000ED1DFF86880A8F10808D8F8008048EA5B
:100CD0000008DFF85890A9F10809C9F800800DE074
:100CE000DFF84880A8F10808D8F8008028EA000852
:100CF000DFF83890A9F10809C9F80080521CD1F832
:100D0000008038FA02F87FF48BAEBDE8F887000067
:100D1000000011100010024000080140000C0140CA
:100D20000010014000140140080001400804014087
:100D3000024693680B4201D0012000E0002070477A
:100D400010B5C26821EA020302EA010443EA04433F
:100D5000036110BD0AB1016101E00B04036170473A
:100D600001480068704700001406002070B5044672
:100D70000CB9012070BD94F83D0028B9002084F81A
:100D80003C00204600F08CF9242084F83D002068C7
:100D9000006820F00100216808602068006840F4C5
:100DA0000040216808602068006820F40040216845
:100DB000086000F04FFB05465C496068884206D831
:100DC0005B48854201D2012007E0002005E0594838
:100DD000854201D2012000E00020012800D1C9E7AE
:100DE0005548B5FBF0F62068406820F03F003043DE
:100DF000216848604D496068884201D8701C07E04E
:100E00004FF4967070434FF47A71B0FBF1F0401CD0
:100E10002168096A21F03F010843216808624349BB
:100E20006068884214D8681E61684900B0FBF1F020
:100E3000401CC0F30B00042801D204203DE0681ED2
:100E400061684900B0FBF1F0401CC0F30B0034E0D6
:100E5000A06838B9681E616801EB4101B0FBF1F090
:100E6000401C0AE0681E616801EBC10202EB01113F
:100E7000B0FBF1F0401C40F480400005000D01D1B2
:100E800001201AE0A06848B9681E616801EB4101C1
:100E9000B0FBF1F0401CC0F30B000CE0681E616871
:100EA00001EBC10202EB0111B0FBF1F0401CC0F3F9
:100EB0000B0040F4804040F400402168C9694CF6C2
:100EC000FF72914308432168C861D4E907010843D0
:100ED0002168096821F0C001084321680860D4E94D
:100EE000031008432168896848F2FF3291430843A0
:100EF00021688860D4E9050108432168C96821F0A8
:100F0000FF0108432168C8602068006840F00100C4
:100F10002168086000202064202084F83D00002023
:100F2000206384F83E0000BF24E70000A086010093
:100F300080841E0000093D0040420F002DE9FC5F47
:100F400004460F4690469946DDE90CAB0E9EFFF72E
:100F500007FF054694F83D0020287DD11923012282
:100F60004D492046009501F082F910B10220BDE8FC
:100F7000FC9F00BF94F83C00012801D10220F6E755
:100F8000012084F83C0000BF2068006810F0010FC9
:100F900005D12068006840F00100216808602068E1
:100FA000006820F4006021680860212084F83D007A
:100FB000402084F83E0000202064C4F824A0A4F857
:100FC0002AB0608D20853548E0624B46424639465E
:100FD0002046CDE9006501F0A7F808B10120C6E779
:100FE00031E02A463146204601F01CFA50B1206C0F
:100FF000042805D12068006840F40070216808606A
:101000000120B4E7606A007821680861606A401CCA
:101010006062208D401E2085608D401E60852068A6
:101020004069C0F3800070B1208D60B1606A0078C3
:1010300021680861606A401C6062208D401E208526
:10104000608D401E6085208D0028CAD12A46314619
:10105000204601F0D9F800E01CE050B1206C0428D3
:1010600005D12068006840F4007021680860012004
:101070007DE72068006840F4007021680860202047
:1010800084F83D00002084F83E0000BF84F83C0056
:1010900000BF6CE702206AE7020010000000FFFFBB
:1010A00010B586B00446002002900390049005908D
:1010B00015492068884225D100BF1448806940F056
:1010C0000800124988610846806900F00800019014
:1010D00000BF00BFC02002901220039003200590A3
:1010E00002A90B48FFF796FC00BF0848C06940F40E
:1010F00000100649C8610846C06900F4001001905C
:1011000000BF00BF06B010BD0054004000100240F8
:10111000000C01400348006803490978084401496C
:1011200008607047140600201006002010B508481B
:10113000006840F0100006490860032000F0AAF89B
:10114000002000F007F800F02BF8002010BD000090
:101150000020024070B504460E4800784FF47A71C2
:10116000B1FBF0F00C490968B1FBF0F5284600F03E
:10117000E9FB08B1012070BD102C07D200222146E6
:10118000501E00F049F80548046001E00120F2E734
:101190000020F0E710060020180600200C060020B2
:1011A00008B500BF1148806940F001000F4988610F
:1011B0000846806900F00100009000BF00BF00BF3A
:1011C0000846C06940F08050C8610846C06900F018
:1011D0008050009000BF00BF00BF0549486820F064
:1011E000E06040F00070486000BF08BD00100240A1
:1011F0000000014010B50146084600280ADB00F057
:101200001F0301229A4043094FF0E02404EB8303BB
:10121000C3F8002100BF10BD2DE9F05F80460D46E8
:101220001646002701F06CFF074639462A4633462A
:1012300001F00700C0F1070ABAF1040F02D94FF01C
:10124000040A01E0C0F1070AD14600F1040ABAF12C
:10125000070F02D24FF0000A01E0A0F1030AD446C2
:101260004FF0010A0AFA09FAAAF1010A0AEA020A87
:101270000AFA0CFA4FF0010B0BFA0CFBABF1010B65
:101280000BEA030B4AEA0B042146404601F040FFFB
:10129000BDE8F09F00BF00F00702064B19684FF64B
:1012A000FF031940044B0B4343EA0221014B196031
:1012B00000BF70470CED00E00000FA0570B5044671
:1012C0000D460CB9012070BD5A48006800F00700B7
:1012D000A8420ED25748006820F00700284355491D
:1012E00008600846006800F00700A84201D001200D
:1012F000E9E7207800F0020002281DD1207800F0F4
:101300000400042805D14C48406840F4E0604A4994
:101310004860207800F00800082805D14648406859
:1013200040F46050444948604348406820F0F00071
:10133000A168084340494860207810F0010F37D079
:101340006068012806D13C48006810F4003F12D1C3
:101350000120B8E76068022806D13748006810F01D
:10136000007F08D10120AEE73348006810F0020F7B
:1013700001D10120A7E73048406820F003006168F0
:1013800008432D494860FFF7EBFC064608E0FFF7ED
:10139000E7FC801B41F28831884201D9032092E7A3
:1013A0002548406800F00C006168B0EB810FEED179
:1013B0002048006800F00700A8420ED91D480068C8
:1013C00020F0070028431B4908600846006800F029
:1013D0000700A84201D0012075E7207800F0040042
:1013E000042807D11448406820F4E060E16808430D
:1013F00011494860207800F00800082808D10E48FC
:10140000406820F46050216940EAC1000A49486000
:1014100000F040F808494968C1F30311074A515CDC
:10142000C8400749086007480068FFF793FE00209E
:1014300049E7000000200240001002405E3600082C
:10144000180600200C0600200148006870470000C4
:101450001806002000B5FFF7F7FF04494968C1F3FB
:101460000221034A515CC84000BD00000010024048
:101470006E36000800B5FFF7E7FF04494968C1F37D
:10148000C221034A515CC84000BD00000010024068
:101490006E36000870B500210022002400230020D1
:1014A000134D696811F00C051ED0042D02D0082DD3
:1014B00019D101E00F4819E00F4DC1F38346AB5D30
:1014C00011F4803F0AD00A4D6D68C5F340450B4EBC
:1014D000725D084D5D43B5FBF2F402E0084D03FB7D
:1014E00005F4204602E000BF024800BF00BF70BD07
:1014F0000010024000127A004C3600085C360008EA
:1015000000093D00F8B504460CB90120F8BD20786B
:1015100010F0010F75D0F948406800F00C00042865
:101520000CD0F648406800F00C00082810D1F348B1
:10153000406800F48030B0F5803F09D1EF48006882
:1015400010F4003F5DD0606800285AD10120DDE72B
:1015500000BF6068B0F5803F06D1E848006840F4FD
:101560008030E649086028E0606858B9E3480068C0
:1015700020F48030E14908600846006820F48020AB
:1015800008601AE06068B0F5A02F0BD1DB48006856
:1015900040F48020D94908600846006840F4803053
:1015A00008600AE0D548006820F48030D34908601C
:1015B0000846006820F48020086000BF606880B1A1
:1015C000FFF7CEFB054606E0FFF7CAFB401B642889
:1015D00001D903209AE7C948006810F4003FF3D00E
:1015E0000FE0FFF7BDFB054606E0FFF7B9FB401B28
:1015F000642801D9032089E7C048006810F4003F3F
:10160000F3D1207800F00200022855D1BB48406891
:1016100010F00C0F0AD0B948406800F00C00082800
:1016200018D1B648406810F4803F13D1B348006821
:1016300010F0020F04D02069012801D0012065E7D5
:10164000AE48006820F0F800616940EAC100AB498B
:10165000086031E02069E0B10120A9490860FFF786
:101660007FFB054606E0FFF77BFB401B022801D904
:1016700003204BE7A148006810F0020FF3D09F4809
:10168000006820F0F800616940EAC1009B490860E9
:1016900012E000209A490860FFF762FB054606E069
:1016A000FFF75EFB401B022801D903202EE7934879
:1016B000006810F0020FF3D1207800F0080008282D
:1016C0002BD1A069B0B101208E490860FFF748FB1B
:1016D000054606E0FFF744FB401B022801D9032022
:1016E00014E78648406A10F0020FF3D0012001F0A1
:1016F000DBF812E0002083490860FFF731FB054664
:1017000006E0FFF72DFB401B022801D90320FDE670
:101710007A48406A10F0020FF3D1207800F00400FC
:10172000042872D100277548C06910F0805F0ED17F
:1017300000BF7248C06940F080507049C8610846D7
:10174000C06900F08050009000BF00BF01276E48C4
:10175000006810F4807F15D16B48006840F48070F9
:1017600069490860FFF7FCFA054606E0FFF7F8FA5A
:10177000401B642801D90320C8E66348006810F4C0
:10178000807FF3D000BFE068012806D15B48006A83
:1017900040F001005949086227E0E06858B957480D
:1017A000006A20F00100554908620846006A20F0EE
:1017B0000400086219E0E06805280BD14F48006A70
:1017C00040F004004D4908620846006A40F00100FC
:1017D00008620AE04948006A20F0010047490862AF
:1017E0000846006A20F00400086200BFE06898B173
:1017F000FFF7B6FA054609E0FFF7B2FA401B41F2DF
:101800008831884202D9032080E620E03B48006A04
:1018100010F0020FF0D011E0FFF7A2FA054608E041
:10182000FFF79EFA401B41F28831884201D903201C
:101830006CE63248006A10F0020FF1D1012F05D199
:101840002E48C06920F080502C49C86100BFE06973
:10185000C0B32A48406800F00C0008285CD0E0695A
:1018600002283DD1002026490866FFF779FA05468F
:1018700006E0FFF775FA401B022801D9032045E670
:101880001E48006810F0007FF3D1206AB0F5803F59
:1018900007D11A48406820F40030A168084317496E
:1018A0004860D4E9080108431449496821F47411D7
:1018B000084312494860012011490866FFF750FAB1
:1018C000054607E03AE0FFF74BFA401B022801D932
:1018D00003201BE60948006810F0007FF3D02DE0DC
:1018E000002007490866FFF73BFA05460EE0FFF7C0
:1018F00037FA401B022809D9032007E600100240EE
:101900000000424280044242007000400C480068DF
:1019100010F0007FEBD111E0E069012800D1F5E57E
:101920000748466806F48031206A814204D106F4F3
:101930007011606A814201D00120E7E50020E5E5F1
:101940000010024070B504462546681EB0F1807F45
:1019500001D301200FE0681E4FF0E02148610F2104
:101960004FF0FF3001F0D4FB00204FF0E021886100
:1019700007200861002070BD30B502460B4600BF4D
:1019800092F83C00012801D1022030BD012082F8EC
:101990003C0000BF022082F83D00106844681068D7
:1019A000816824F070041868044310684460104D86
:1019B0001068A8420BD01068B0F1804F07D00D4DD1
:1019C0001068A84203D00C4D1068A84205D121F040
:1019D00080015868014310688160012082F83D0051
:1019E00000BF002082F83C0000BF00BFCDE7000030
:1019F000002C0140000400400008004010B50446DF
:101A00000CB9012010BD94F83D0028B9002084F8DD
:101A10003C00204600F026F8022084F83D00211DFD
:101A2000206801F065F8012084F8460000BF84F8C2
:101A30003E0001213F200155402001554120015524
:101A400000BF00BF012084F842004320015544201C
:101A500001554520015500BF012084F83D000020BC
:101A6000D0E7000008B5094A016891420DD100BFD6
:101A70000749896941F40061054A91611146896904
:101A800001F40061009100BF00BF08BD002C0140BF
:101A9000001002402DE9F04104460D46002700BF2A
:101AA00094F83C00012802D10220BDE8F081012019
:101AB00084F83C0000BF022084F83D00206886685E
:101AC00026F0770626F47F4620688660286850282E
:101AD00033D00CDC202850D004DC00284BD0102858
:101AE00051D149E0302849D040284CD139E0602814
:101AF0002DD0702807D0B0F5805F03D0B0F5005F1F
:101B000041D10DE041E0D5E902136A68206801F097
:101B100029F82068866846F077062068866034E0F9
:101B2000D5E902136A68206801F01CF82068806813
:101B300040F480402168886027E0EA68696820688E
:101B400001F024F85021206801F017F81DE0EA6840
:101B50006968206801F02DF86021206801F00DF817
:101B600013E0EA686968206801F010F840212068F5
:101B700001F003F809E000BF00BF00BF296820683A
:101B800000F0FBFF01E0012700BF00BF012084F847
:101B90003D0000BF002084F83C0000BF384684E7C9
:101BA000F8B504460E46174694F8420020282ED178
:101BB00006B10FB90120F8BD012020630020606349
:101BC0003A463146204601F055F90546EDB9206BFD
:101BD000012819D100BF0020009020680068009003
:101BE00020684068009000BF00BF00BF00BF2168B0
:101BF0000C3151E8001F41F0100021680C3141E820
:101C00000002002AF3D100E001252846D3E7022094
:101C1000D1E7000070B505460C46054804608022F7
:101C200004492846FFF7BCFF01200349087070BD36
:101C3000F40500201C0A0020F90500207047000070
:101C40002DE9F84F0446206805682068C6682068BA
:101C500047694FF00009CA4605F00F09B9F1000FB6
:101C60000AD115F0200F07D016F0200F04D020461F
:101C700001F003F8BDE8F88FB9F1000F7AD017F042
:101C8000010F02D116F4907F74D015F0010F06D029
:101C900016F4807F03D0606C40F00100606415F0A2
:101CA000040F06D017F0010F03D0606C40F0020063
:101CB000606415F0020F06D017F0010F03D0606CBE
:101CC00040F00400606415F0080F09D016F0200FF2
:101CD00002D117F0010F03D0606C40F0080060647F
:101CE000606C002845D015F0200F05D016F0200FAD
:101CF00002D0204600F0C1FF20684069C0F3801A7E
:101D0000606C10F0080F02D1BAF1000F2CD0204601
:101D100000F06DFF2068406910F0400F20D000BF38
:101D200000BF2168143151E8001F21F040002168F4
:101D3000143141E80002002AF3D100BFE06B50B13A
:101D40007548E16B4863E06BFEF7F8FD88B1E06B26
:101D5000416B88470DE02046FFF770FF09E009E07E
:101D60002046FFF76BFF04E02046FFF767FF0020E7
:101D700060647FE7206B012874D115F0100F71D0DB
:101D800016F0100FFBD000BF002000902068006804
:101D9000009020684068009000BF00BF2068406944
:101DA00010F0400F5FD0E06B006840681FFA80F8C9
:101DB000B8F1000F55D0A08D404552DDA4F82E801B
:101DC000E06B8069202843D000BF00BF21680C3140
:101DD00051E8001F21F4807021680C3141E80002B5
:101DE000002AF3D100BF00BF00BF2168143151E8C1
:101DF000001F21F001002168143141E80002002A8F
:101E0000F3D100BF00BF00BF2168143151E8001FAB
:101E100021F040002168143141E80002002AF3D18A
:101E200000BF202084F842000020206300BF00BFD4
:101E300021680C3151E8001F21F0100021680C319D
:101E400041E80002002AF3D100BFE06BFEF74AFD33
:101E500002206063A08DE28D801A81B22046FFF7D8
:101E6000D9FE07E742E0A08DE18D401A1FFA80F805
:101E7000E08DD0B3B8F1000F37D000BF00BF2168AC
:101E80000C3151E8001F21F4907021680C3141E8B9
:101E90000002002AF3D100BF00BF00BF2168143147
:101EA00051E8001F21F001002168143141E80002CF
:101EB000002AF3D100BF202084F8420000202063D4
:101EC00000BF00BF21680C3151E8001F21F0100055
:101ED00021680C3141E80002002AF3D100BF022042
:101EE000606341462046FFF795FEC3E615F0800F7C
:101EF00006D016F0800F03D0204600F0DBFFB9E6D5
:101F000015F0400F06D016F0400F03D0204600F029
:101F1000A4FEAFE600BFADE6DB2B000810B504461B
:101F20000CB9012010BDA06900B100E000BF94F819
:101F3000410028B9002084F84000204600F02AF82B
:101F4000242084F841002068C06820F400502168F3
:101F5000C860204600F010FF2068006920F490401F
:101F6000216808612068406920F02A0021684861E2
:101F70002068C06840F400502168C8600020606498
:101F8000202084F8410084F842000020606300BFF4
:101F9000C8E7000010B586B0044600200290039008
:101FA000049005901E492068884236D100BF1D4824
:101FB000806940F480401B4988610846806900F4CC
:101FC0008040019000BF00BF00BF0846806940F01C
:101FD000040088610846806900F00400019000BF99
:101FE00000BF48150290022003900320059002A92B
:101FF0000D48FEF70FFD4FF4806002900020039023
:10200000049002A90848FEF705FD0022114625208C
:10201000FFF702F92520FFF7EDF806B010BD00002C
:1020200000380140001002400008014070472DE9CF
:10203000F84F04460E46174699464FF0000A94F8AA
:10204000410020284AD106B117B90120BDE8F88F18
:1020500000206064212084F84100FEF781FE824662
:10206000A784E784A068B0F5805F04D1206910B927
:102070000025B04602E035464FF000081BE053460D
:10208000002280212046CDF8009000F044FF08B1E6
:102090000320DBE745B9B8F80000C0F30800216869
:1020A000486008F1020803E02878216848606D1C48
:1020B000E08C401EE084E08C0028E0D153460022F2
:1020C00040212046CDF8009000F025FF08B1032004
:1020D000BCE7202084F841000020B7E70220B5E7E4
:1020E000704700E07047FDE7014608684069C0F3AB
:1020F0008020B0B16FF480600A68506100200863EE
:10210000202081F83D00002081F83E00086C40F05E
:102110000400086400BF002081F83C0000BF0120DB
:1021200070470020FCE700002DE9F843044688468C
:1021300015469946DDE908672068006840F480701C
:1021400021680860334600224FF0011120460097B5
:1021500000F08DF860B12068006800F48070B0F580
:10216000807F02D14FF4007020640320BDE8F88323
:1021700008F0FE00216808613B46324621492046AE
:1021800000F0D4F808B10120F0E700BF0020009073
:1021900020684069009020688069009000BF00BFFF
:1021A0003A463146204600F03DF950B1206C0428F3
:1021B00005D12068006840F40070216808600120A3
:1021C000D4E7B9F1010F03D1E8B22168086117E043
:1021D000C5F30720216808613A463146204600F0E1
:1021E00021F950B1206C042805D12068006840F422
:1021F0000070216808600120B8E7E8B22168086132
:102200000020B3E70200010070B504460D461646F3
:1022100025E02046FFF768FF08B1012070BD681C6B
:102220001DD0FEF79DFD801BA84200D8BDB92068D7
:102230004069C0F3800090B900202063202084F81A
:102240003D00002084F83E00206C40F02000206417
:1022500000BF002084F83C0000BF0120DEE72068BA
:102260004069C0F380000028D3D00020D6E72DE9D4
:10227000F04104460D4617461E46DDF8188038E04A
:10228000701C36D0FEF76CFDA0EB0800B04200D801
:1022900076BBC5F3074001280AD120684069A9B27E
:1022A0000840A9B2884201D101200BE0002009E0DA
:1022B00020688069A9B20840A9B2884201D10120F2
:1022C00000E00020B84214D100202063202084F8D0
:1022D0003D00002084F83E00206C40F02000206487
:1022E00000BF002084F83C0000BF0120BDE8F08161
:1022F000FFE7C5F3074001280AD120684069A9B269
:102300000840A9B2884201D101200BE0002009E079
:1023100020688069A9B20840A9B2884201D1012091
:1023200000E00020B842ABD00020DFE72DE9F0410B
:1023300004460D4616461F4657E020684069C0F324
:102340008020E8B12068006840F4007021680860CF
:102350006FF480602168486100202063202084F8A9
:102360003D00002084F83E00206C40F00400206412
:1023700000BF002084F83C0000BF0120BDE8F081D0
:10238000701C32D0FEF7ECFCC01BB04200D866BB1C
:10239000C5F3074001280AD120684069A9B2084066
:1023A000A9B2884201D101200BE0002009E0206899
:1023B0008069A9B20840A9B2884201D1012000E099
:1023C000002090B900202063202084F83D000020E8
:1023D00084F83E00206C40F02000206400BF002004
:1023E00084F83C0000BF0120C8E7C5F3074001287E
:1023F0000AD120684069A9B20840A9B2884201D137
:1024000001200BE0002009E020688069A9B20840A3
:10241000A9B2884201D1012000E0002000288CD020
:102420000020ABE770B504460D46164625E0204671
:10243000FFF75AFE08B1012070BD681C1DD0FEF7E1
:102440008FFC801BA84200D8BDB920684069C0F34A
:10245000C01090B900202063202084F83D000020A7
:1024600084F83E00206C40F02000206400BF002073
:1024700084F83C0000BF0120DEE720684069C0F31B
:10248000C0100028D3D00020D6E700000EB50020F1
:1024900000900190029011481149086000211048F5
:1024A0008160017301754FF46021C16100200C4906
:1024B000486001210A480161FEF794F808B1FDF770
:1024C00041FF0120009001900020029069460448DD
:1024D000FDF74AFF08B1FDF735FF0EBD00240140AE
:1024E000BC0A002000B585B0002001900290039046
:1024F000049000BF2C48806940F010002A49886190
:102500000846806900F01000009000BF00BF00BFC7
:102510000846806940F0200088610846806900F024
:102520002000009000BF00BF00BF0846806940F057
:10253000040088610846806900F00400009000BF34
:1025400000BF00BF0846806940F008008861084667
:10255000806900F00800009000BF00BF00224FF427
:1025600000511248FEF7F6FB012211461048FEF713
:10257000F1FB4FF4005001900120029000200390E5
:102580000220049001A90948FEF744FA01200190B5
:102590000290002003900320049001A90448FEF754
:1025A00039FA05B000BD00000010024000100140E3
:1025B0000008014010B50B480B4908600B48486003
:1025C000002109488160C1604FF480410161002110
:1025D00041618161C1610162FEF7C8FB08B1FDF78D
:1025E000B1FE10BD00540040EC0A0020801A060025
:1025F00000B587B0002003900490059006900190EC
:1026000002901548154908600920486000211348C8
:1026100081604FF6FF71C1600021016141618161FC
:10262000FFF7ECF908B1FDF78DFE4FF480500390F1
:1026300003A90A48FFF72EFA08B1FDF783FE002030
:102640000190029001A90548FFF796F908B1FDF73E
:1026500079FE07B000BD0000002C0140400B0020B7
:1026600010B50B480B4908604FF4E1304860002179
:1026700008488160C16001610C21416100218161D4
:10268000C161FFF74BFC08B1FDF75CFE10BD000017
:1026900000380140880B002000BFFEE700BFFEE7C6
:1026A00070B500240EE00021204600F078F80025E7
:1026B00004E0002000F0E4F8681CC5B2802DF8DBCF
:1026C000601CC4B2082CEEDB002410E00021204680
:1026D00000F065F8002506E00020064901EBC41172
:1026E0004855681CC5B2802DF6DB601CC4B2082CAE
:1026F000ECDB70BD1C06002070B5002406E0002550
:1027000000E06D1CB5F57A7FFBD3641CB4F57A7FCD
:10271000F5D3AE2000F0A2F8D52000F09FF880207D
:1027200000F09CF8A82000F099F83F2000F096F8FF
:10273000D32000F093F8002000F090F8402000F043
:102740008DF8A12000F08AF8C82000F087F8DA2080
:1027500000F084F8122000F081F8812000F07EF86B
:10276000CF2000F07BF8D92000F078F8F12000F0BD
:1027700075F8DB2000F072F8302000F06FF8A4202C
:1027800000F06CF8A62000F069F88D2000F066F8E3
:10279000142000F063F8AF2000F060F870BD70B551
:1027A00005460C4645F0B00000F058F8102141EA0B
:1027B000141000F053F804F00F0000F04FF870BD53
:1027C0002DE9F04105460E461746721ED206110E3F
:1027D0006A1E5206100EFFF7E2FF002409E0A7F17F
:1027E0002001134A02EB0111085D00F049F8601C5A
:1027F000C4B2082CF3DB721ED206110E6A1E01232E
:1028000003EB4202D0B2FFF7CAFF00240BE0A7F1AE
:102810002001074A02EB011204F10801505C00F0AC
:102820002FF8601CC4B2082CF1DBBDE8F081000079
:10283000020000202DE9F04107460E46154600240F
:1028400007E02A5D3019C1B23846FFF7B9FF601CB6
:10285000C4B2285D0028F4D1BDE8F08101B584B090
:10286000FF20012104AA0B46CDE90021029000229D
:1028700078210248FEF762FB05B000BDEC0A00209B
:1028800001B584B0FF20012104AA0B46CDE9002147
:102890000290402278210248FEF750FB05B000BDAF
:1028A000EC0A00207047000008B508490968C9080B
:1028B0004FF47A72B1FBF2F14143009100BF00BFC7
:1028C00000994A1E00920029F9D108BD180600207F
:1028D00070B5002500243BE046F2DD301E4908803B
:1028E00000BF01211D48FEF723FA38B91A480188B4
:1028F0000088401E184A10800029F2D12820FDF7D8
:1029000018FD01211548FEF713FA012819D146F2E6
:10291000DD301149088000BF01211048FEF708FA98
:10292000012807D10C4801880088401E0A4A1080FF
:102930000029F1D1C4F1070101208840C0B205434C
:1029400004E0C4F10701012088408543601CC4B243
:10295000082CC1DB284670BD0000002000080140A3
:102960001CB50446002000900190FDF7D1FC002228
:1029700001214048FEF7EEF91220FEF737F8012258
:1029800011463C48FEF7E6F91E20FDF7D2FCFDF7A4
:10299000AFFC01213748FEF7CBF9002867D146F29A
:1029A000DD303549088000BF01213248FEF7C0F90B
:1029B00038B9314801880088401E2F4A108000290C
:1029C000F2D146F2DD302C49088000BF01212948B0
:1029D000FEF7AEF9012807D1274801880088401E7C
:1029E000254A10800029F1D1FFF772FF8DF8000011
:1029F000FFF76EFF8DF80100FFF76AFF8DF8020008
:102A0000FFF766FF8DF80300FFF762FF8DF8040003
:102A1000FDF77EFC012211461648FEF79BF99DF852
:102A200003009DF8021008449DF8011008449DF829
:102A3000001008449DF80410884216D10E48008802
:102A400098B19DF8000080B19DF8000020709DF8BD
:102A5000010060709DF80200A0709DF80300E07016
:102A60009DF80400207100201CBD0120FCE701201E
:102A7000FAE700000008014000000020704710B590
:102A8000FEF748FB10BD00B58FB0282105A8FDF763
:102A900050FB14216846FDF74CFB01200590000413
:102AA0000690002007900120099002200C90C1039D
:102AB0000D914FF4E0110E9105A8FEF723FD08B12A
:102AC000FDF740FC0F2000900220019000200290B2
:102AD0004FF4806003900020049002216846FEF7C6
:102AE000EDFB08B1FDF72EFC0FB000BD70470000F4
:102AF00010B50268184B984208D0B0F1804F05D04D
:102B0000164B984202D0164B984203D122F0700225
:102B10004B681A43104B984208D0B0F1804F05D053
:102B20000E4B984202D00E4B984203D122F44072D1
:102B3000CB681A4322F080034C6943EA0402026026
:102B40008B68C3620B688362034B984201D10B69A7
:102B500003630123436110BD002C014000040040C9
:102B60000008004030B50C46816821F47F4142EAFC
:102B7000032525432943816030BD0A46816821F041
:102B8000700142F0070319438160704730B50B466E
:102B90001446026A056A25F001050562816921F083
:102BA000F00141EA041122F00A021A438161026233
:102BB00030BD30B50B461446026A056A25F0100593
:102BC0000562816921F4704141EA043122F0A002DA
:102BD00042EA03128161026230BD70B505466C6A3B
:102BE0000020E085E0842046FFF728F870BD00BF94
:102BF00000BF02680C3252E8002F22F49071026884
:102C00000C3242E80013002BF3D100BF00BF00BF1D
:102C10000268143252E8002F22F0010102681432D7
:102C200042E80013002BF3D100BF016B01290ED144
:102C300000BF00BF02680C3252E8002F22F01001E2
:102C400002680C3242E80013002BF3D100BF2021B0
:102C500080F8421000210163704710B504462068D7
:102C6000C06820F040002168C860202084F841003E
:102C70002046FFF735FA002010BDF8B5044694F859
:102C80004200222875D1A068B0F5805F0CD1206980
:102C900050B90025A66A20684068C0F3080030805B
:102CA000A06A801CA06215E0A56A0026A068B0F5A5
:102CB000805F03D0A06828B9206918B920684068EF
:102CC000287004E02068406800F07F002870A06A47
:102CD000401CA062E08D401E0004000CE08546D13F
:102CE0002068C06820F020002168C8602068C068A3
:102CF00020F480702168C8602068406920F00100DD
:102D000021684861202084F8420000206063206B25
:102D1000012826D10020206300BF00BF21680C31AC
:102D200051E8001F21F0100021680C3141E8000239
:102D3000002AF3D100BF2068006800F010001028BE
:102D40000AD100BF00200090206800680090206831
:102D50004068009000BF00BFA18D2046FEF75AFFDB
:102D600002E02046FFF762F90020F8BD01E00020F4
:102D7000FBE70220F9E7000070B504462168096905
:102D800021F44051E2681143226811612269A1686F
:102D90001143626941EA02052168C96841F20C6287
:102DA000914329432268D1602168496921F4407127
:102DB000A2691143226851612D4A2168914202D1D2
:102DC000FEF758FB01E0FEF745FB00EBC00101EB0D
:102DD000001162689200B1FBF2F100EBC00202EB5D
:102DE000001263689B00B2FBF3F26423B2FBF3F2C0
:102DF00002EBC20303EB0212A1EB8201322202EBCF
:102E000001116422B1FBF2F101F0F00100EBC0020C
:102E100002EB001263689B00B2FBF3F26423B2FB87
:102E2000F3F201EB021200EBC00101EB0011636849
:102E30009B00B1FBF3F100EBC00303EB00136668EA
:102E4000B600B3FBF6F36426B3FBF6F303EBC3065D
:102E500006EB0313A1EB8301322303EB011164237F
:102E6000B1FBF3F101F00F0111442268916070BDD4
:102E70000038014010B5034699629A85DA85002032
:102E80005864222083F84200186928B11868C06885
:102E900040F480701C68E0601868406940F00100F0
:102EA0001C6860611868C06840F020001C68E06021
:102EB000002010BD014691F84100212829D18868E1
:102EC000B0F5805F0BD1086948B90A6A1088C0F371
:102ED00008000B685860086A801C086205E00B6AED
:102EE000581C086218780B685860C88C401E000493
:102EF000000CC8840BD10868C06820F080000B6803
:102F0000D8600868C06840F040000B68D8600020B6
:102F100070470220FCE72DE9F04104460D461746B4
:102F20009846069E33E0701C31D02EB1FDF718FF95
:102F3000A0EB0800B0422AD900BF00BF21680C31C5
:102F400051E8001F21F4D07021680C3141E80002E3
:102F5000002AF3D100BF00BF00BF2168143151E83F
:102F6000001F21F001002168143141E80002002A0D
:102F7000F3D100BF202084F8410084F8420000BF54
:102F8000002084F8400000BF0320BDE8F0812068E5
:102F900000682840A84201D1012000E00020B8428A
:102FA000C1D00020F1E7000010B50248FEF748FE4E
:102FB00010BD0000880B002070B5002400260025FD
:102FC0003E480088801E81B23D4800F06FFA0546F9
:102FD00020213C48FDF7ADF8E9B238480068801E72
:102FE000374A105C814208D134480068401E1146BF
:102FF000085CC5F30721884200D070BD30480078D6
:10300000012800D0F9E701202E4908702C484078AB
:1030100003284FD12A4840792949097940EA0120FB
:103020004FF6FF7101EA40060320264948708E7072
:10303000254908702248C0782149897840EA012052
:10304000224901EB400414E014F8011B1E480278E9
:103050000078401C1C4B18701A48815414F8011B4E
:10306000184602780078401C187016488154B01E2B
:1030700086B2002EE8D114480178124800F016FA02
:103080000546114802780078401C0F4B18700D4817
:103090008554C5F30722184601780078401C187043
:1030A00008484254731E0848027806490848FEF74B
:1030B000BEFF00E000BF00BF00BF9EE7F405002098
:1030C0001C0A00209C0A0020F8050020FA050020B8
:1030D000880B002000BFFEE70FB4084B10B504A911
:1030E00002AA039800F038F8044602A9002000F074
:1030F000D8F9204610BC5DF814FB0000A33400088A
:1031000002480068C0F30220704700000CED00E0A8
:1031100010B5002804DB0A07130E054A135406E015
:103120000A07140E034A00F00F031B1FD45410BDEE
:1031300000E400E018ED00E002E008C8121F08C13A
:10314000002AFAD170477047002001E001C1121F28
:10315000002AFBD1704700002DE9FF4F8BB0884655
:103160000546002667E125287AD100246D1CB64962
:10317000A146A24601222B78203B02FA03F0084226
:1031800002D004436D1CF6E728782A2810D06FF08F
:103190002F022878A0F13001092915D809EB8901FF
:1031A00002EB410144F0020400EB01096D1CF0E761
:1031B00058F8049BB9F1000F03DA44F40054C9F144
:1031C000000944F002046D1C28782E2817D115F848
:1031D000010F44F004042A280ED06FF02F02287843
:1031E000A0F1300109290AD80AEB8A0102EB41015A
:1031F00000EB010A6D1CF2E758F804AB6D1C28784F
:103200006C280FD006DC4C2817D068280DD06A280F
:1032100014D104E0742810D07A280FD10DE044F4C2
:1032200000140AE044F4801401E044F44014697886
:10323000814202D16D1C04F580146D1C2878692828
:1032400066D007DC002876D0632828D0642807D110
:103250005EE005E06E2808D073282AD075287AD061
:10326000DDE90D129047761CE4E0C4F30250022819
:1032700009D003280DD0D8F8001004280DD00E6016
:1032800008F10408D6E0D8F80010F217C1E900628E
:10329000F6E7D8F800100E80F2E70E70F0E718F8A5
:1032A000041B8DF8001000208DF80100EB46012072
:1032B00003E058F804BB4FF0FF3061074FF0000700
:1032C00001D40AE07F1C57450DDA8742FADB1BF870
:1032D00007100029F6D106E07F1C8742FCDB1BF8B3
:1032E00007100029F8D1DDE90D23A9EB070081467D
:1032F000214600F0BEF83044C61904E0DDE90D12A5
:103300001BF8010B90477F1EF8D2214648468CE0FF
:1033100058F8040BC4F302514FF00A0B032900D1F3
:1033200000B2042900D140B2002806DAC0F1000042
:103330004FF02D0104E082E00DE0210504D52B21A2
:103340008DF82410012103E0E10710D02021F7E7D8
:1033500008AF089114E058F8040BC4F302514FF081
:103360000A0B032900D180B2042900D1C0B2002188
:10337000EEE75946FCF7E8FE01F1300107F8011DC0
:103380000028F6D1ADEB070000F1200B600702D555
:1033900024F4803401E04FF0010ADA4502DDAAEBA3
:1033A0000B0000E00020824600EB0B01089801446E
:1033B000A9EB01000A90E00306D4DDE90D232146C4
:1033C0000A9800F056F80644002008E009A911F810
:1033D0000900DDE90D129047761C09F101000899FA
:1033E00081468842F2DBE0030CD5DDE90D2321465E
:1033F0000A9800F03EF8064404E0DDE90D123020A2
:103400009047761CBAF10001AAF1010AF5DC05E04B
:10341000DDE90D1217F8010B9047761CBBF1000196
:10342000ABF1010BF4DC0A982146DDE90D2300F035
:103430000DF806446D1C287800287FF494AE0FB078
:103440003046BDE8F08F0000092801002DE9F04169
:10345000044600251E461746880405D406E0394672
:103460002020B04705F10105641EF8D52846BDE8C7
:10347000F0812DE9F041044600251E469046C80320
:1034800001D5302700E02027880405D506E0414615
:103490003846B04705F10105641EF8D52846BDE859
:1034A000F0810A68531C0B601070704770B50346BA
:1034B0000C464FF6FF714AF20106002210E0985CBC
:1034C0004140002508E011F0010F02D04910714081
:1034D00000E04910681CC5B2082DF4DB501CC2B2D4
:1034E000A242ECDB08B270BD1FB5FDF71FFEFFF76F
:1034F000CAFAFEF7F7FFFFF75DF8FFF7B1F8FFF73D
:1035000077F8FEF7C3FF3220FDF770FAFFF7F4F803
:10351000FFF7C6F83BA16846FFF7DEFD6A460121CA
:103520000846FFF787F93220FDF760FA01225103C0
:103530003748FDF70FFC102236493748FEF730FBBD
:103540003648FDF731F95CE035480078012808D1AC
:10355000002033490870FFF72FFD4FF4FA70FDF794
:1035600045FAFCF7F3FE2F490880002000908DF803
:103570000400084602882CA16846FFF7ADFD6A46A4
:1035800001210320FFF756F94FF400512048FDF7C1
:10359000D7FBFA20FDF72AFA2548FFF7E1F9A8B989
:1035A000002000908DF8040021480378827821A142
:1035B0006846FFF791FD6A4601210220FFF73AF9BC
:1035C0001FA201210320FFF735F904E01DA201210C
:1035D0000320FFF72FF900201B490870144880785A
:1035E00048700020887012480078C8702720087141
:1035F000102048710B480088001288710948007833
:10360000C871A1E74F4C454420416374000000009D
:10361000001001401C0A0020880B0020BC0A00207A
:10362000F905002008060020253034640000000061
:1036300002060020253032642C2530326400000060
:103640004F4B00004E4F0000FA0500200203040516
:10365000060708090A0B0C0D0E0F101001020000DE
:103660000000000000000102030406070809000032
:10367000000001020304000098360008000000204A
:103680001C06000098010008183A00081C060020DB
:10369000B4090000483100080313DD6372F84333B6
:1036A000301C100C0603912C40C07803112C043FF1
:1036B0000403212D7088FC0829261820FF211E14E0
:1036C000F008F033E0184D211C031E113388700000
:1036D0000C101E2123241927211010160E45E01866
:1036E000040225071820403D020418E0692C201828
:1036F0000707174080F08040403F0202010F01029F
:103700002842F01D0101011F04912B80B066B11900
:103710001D2901913A30CE492C146018043C6018E0
:10372000061D1EE010080810721F0F102020100F39
:10373000F05310F83620203F20203C700808C21EAD
:103740003028242221441E3008888848082E18205A
:10375000202011CC3BC0203227070424243F241A08
:10376000F8202308084B19212036E0108888184BD0
:103770000F11101E380808C8382021523F1A702E29
:1037800029608F1C222121221C90111D312222111F
:10379000901961CAC0C26A80C659081C40201050E6
:1037A000170102040810204A4001114A040121199E
:1037B000152A403219251B0402F21B7048D13AF039
:1037C000501A360F1EC030C828E87028080718277E
:1037D0002423140B6F2A387E280D203C2302022755
:1037E000382008F888889F4B203FF01BC0303F1BD3
:1037F000083830191019781B08F80F194039201BA8
:10380000100F103E8888E8081010AC232018101103
:103810002A035E2940223829402C221E024019A486
:103820001809F808203F21010121252A0852298181
:1038300029424149112EC08080807F0E2FF888C018
:10384000281808501C0126382F2940292F29801BB1
:1038500020301012F81AF81413203F190229204BB7
:1038600030C0601A2074123F4BE010B06B0F10B0E4
:1038700029D01AF0301980220179203F18242438E9
:10388000504FC04C888870C0140C30204B7088C1D9
:103890001738202121221C3A189F4A188239A04942
:1038A000D0112A1F90121F240878881BC838151CB5
:1038B00007380E60191A1AF8201114033C07140770
:1038C0003C034814081868808068180820302C03CE
:1038D000032C30200838C82F5950298F29102F2049
:1038E0003826212020681145FE020202257F404033
:1038F000401A0CE0611C0106380B191D42FE191D0F
:10390000527F1A04120211045A80011930D91D394C
:103910001621180819242222223F20AB390F115FEB
:103920003F112020110E21311A0E104B2011104B87
:1039300088F8102A10B359401A1F3F2B22130F1674
:10394000F0888888181A20D029D1497A21176B94D9
:10395000949493603960190F4C203F21F354809860
:1039600098793059121AC02719D1193039311F20CE
:103970003F24022D30212A0812893069D7294B298A
:1039800003190BC96079A019BF2B201FDD390F9CCB
:1039900080FFA1E0191229D03BA0FF0C395019413A
:1039A00012208A01C01B3324012A190F3AE0413941
:1039B00052290F392349603C103F202C29053F0133
:1039C0000E3008060170291038080F300C030C3037
:1039D0000F2C49A14E312E0E31200C29621D818EF3
:1039E00070183059D1215721302C22213055807C3C
:1039F0000202443F404072FF39083C02027C8F546F
:103A000040403F000822060101020204043210294E
:083A1000E0511324F400000052
:04000005080000ED02
:00000001FF
