:020000040800F2
:1000000068080020CD010008F50600084106000838
:10001000F1060008D9030008730F00080000000073
:10002000000000000000000000000000950800082B
:1000300029050008000000007D070008A909000844
:10004000E7010008E7010008E7010008E7010008F0
:10005000E7010008E7010008E7010008E7010008E0
:10006000E7010008E7010008E7010008E7010008D0
:10007000E7010008E7010008E7010008E7010008C0
:10008000E7010008E7010008E7010008E7010008B0
:10009000E7010008E7010008E7010008E7010008A0
:1000A000E7010008E7010008E7010008E701000890
:1000B000E7010008E7010008E7010008E701000880
:1000C000E7010008E7010008E7010008E701000870
:1000D000E7010008550D0008790D0008E701000848
:1000E000E7010008E7010008E7010008E701000850
:1000F000E7010008E7010008E7010008E701000840
:10010000E7010008E7010008E7010008E70100082F
:10011000E7010008E7010008E7010008E70100081F
:10012000E7010008E7010008E7010008E70100080F
:1001300000F002F800F03AF80AA090E8000C8244BF
:100140008344AAF10107DA4501D100F02FF8AFF29C
:10015000090EBAE80F0013F0010F18BFFB1A43F0A5
:100160000103184784110000A4110000103A24BFB5
:1001700078C878C1FAD8520724BF30C830C144BF0C
:1001800004680C607047000000230024002500264E
:10019000103A28BF78C1FBD8520728BF30C148BFEA
:1001A0000B6070471FB51FBD10B510BD00F0D1F832
:1001B0001146FFF7F7FF00F079FF00F003F903B4F1
:1001C000FFF7F2FF03BC00F0F3FE00000948804790
:1001D00009480047FEE7FEE7FEE7FEE7FEE7FEE729
:1001E000FEE7FEE7FEE7FEE704480549054A064B41
:1001F00070470000AD0900083101000868020020C6
:10020000680800206804002068040020704700008F
:100210000FB4044910B503AA029800F023F810BCEB
:100220005DF814FB1C00002030B505460B462A463D
:1002300013F8014B12F8010B08B1A042F8D01CB121
:10024000002802D06D1CF1E7284630BD02F0FF0304
:1002500043EA032242EA024200F018B870477047AE
:1002600070477047074B70B50D467B4400F033F87C
:100270000446284600F042F810B14FF0FF3070BD40
:10028000204670BDFB0D00004FF000020429C0F0B5
:10029000128010F0030C00F03780CCF1040CBCF19C
:1002A000020F18BF00F8012BA8BF20F8022BA1EB0A
:1002B0000C0100F029B85FEAC17C24BF00F8012BD3
:1002C00000F8012B48BF00F8012B704701694A1C58
:1002D00002610878704700B58FB0CDE90131002187
:1002E000059105497944CDE903101146684600F0AF
:1002F00055F80FB000BD0000E5FFFFFF007B00F0E8
:10030000800070474FF0000200B5134694469646B1
:10031000203922BFA0E80C50A0E80C50B1F1200118
:10032000BFF4F7AF090728BFA0E80C5048BF0CC0C6
:100330005DF804EB890028BF40F8042B08BF704724
:1003400048BF20F8022B11F0804F18BF00F8012B96
:100350007047754600F03CF8AE46050069465346C6
:1003600020F00700854618B020B5FFF73DFFBDE837
:1003700020404FF000064FF000074FF000084FF00C
:10038000000B21F00701AC46ACE8C009ACE8C0099D
:10039000ACE8C009ACE8C0098D4670472DE9F041D2
:1003A00006460024D6E90170F5688046304603E031
:1003B0004146B847641C3046A8470028F8D120467B
:1003C000BDE8F0810446AFF300802046FFF7F7FE5A
:1003D000004870470802002000BFFEE710B52DA1BD
:1003E0002D4800F0D7FDC82000F018FE2BA12A48A8
:1003F00000F0D0FDC82000F011FE29A12948FFF728
:1004000013FF002826D028A0FFF702FF2DA0FFF73A
:10041000FFFE00F0D1FD34A11F4800F0BBFD00BF7E
:1004200035A12048FFF700FF0028F9D000F0C4FDF7
:1004300032A1194800F0AEFD00BF2FA11948FFF707
:10044000F3FE0028F9D000F0B7FD00F01BFE00F02D
:1004500029FF1EE02BA0FFF7DBFE00F0ADFD30A171
:100460000D4800F097FDC82000F0D8FD00F0A4FD75
:1004700022A1094800F08EFD00BF1FA10948FFF727
:10048000D3FE0028F9D000F097FD00F0FBFD00F04E
:1004900009FF10BD2B2B2B00004400406100000021
:1004A0006F6B00003800002043757272656E742017
:1004B0006D6F6465206973206E6574206D6F64656F
:1004C0000D0A0000456E74657220415420636F6E02
:1004D0006669672073756363657373286E6574203E
:1004E0006D6F6465290D0A0041542B574B4D4F44E5
:1004F0003D434D440D0A00004F4B000041542B5327
:100500000D0A000043757272656E74206D6F64652C
:1005100020697320636D64206D6F64650D0A0000AF
:1005200041540D0A0000000070472DE9F0410246D9
:1005300000250026002000230024002791F803C096
:100540000CF00F0591F803C00CF0100CBCF1000F7B
:1005500003D091F802C04CEA050591F800C0BCF147
:10056000000F31D0146800202BE04FF0010C0CFA82
:1005700000F3B1F800C00CEA03069E4220D18300CC
:100580004FF00F0C0CFA03F7BC4305FA03FC4CEADE
:10059000040491F803C0BCF1280F06D14FF0010C00
:1005A0000CFA00FCC2F814C00AE091F803C0BCF1D8
:1005B000480F05D14FF0010C0CFA00FCC2F810C036
:1005C000401C0828D1D31460B1F800C0BCF1FF0F63
:1005D00034DD546800202EE000F1080C4FF00108D3
:1005E00008FA0CF3B1F800C00CEA03069E4221D1D0
:1005F00083004FF00F0C0CFA03F7BC4305FA03FC21
:100600004CEA040491F803C0BCF1280F05D100F1B5
:10061000080C08FA0CF8C2F8148091F803C0BCF179
:10062000480F07D100F1080C4FF0010808FA0CF848
:10063000C2F81080401C0828CED35460BDE8F08179
:1006400000BFFEE708B50121402000F0A9F81C20FA
:10065000ADF8000048208DF8030069460648FFF712
:1006600064FF0120ADF8000028208DF803006946E2
:100670000248FFF75AFF08BD00180140000801407A
:100680001848806940F0080016498861084680696A
:1006900040F0400088611448006820F4700012495E
:1006A00008600846006840F4401008600E480C30AE
:1006B000006840F020000C490C3108600B480068CD
:1006C00020F47000094908600846006840F44010B2
:1006D000086006480C30006840F0200003490C31E7
:1006E0000860704700100240000C014000180140F3
:1006F00000BFFEE77047000070B5002100230F2205
:10070000C47804B3154C246804F4E064C4F5E064D0
:10071000210AC1F10403CA40447804FA03F1847841
:100720001440214309010E4C0678A155047804F0C9
:100730001F050124AC4005786D11AD0005F1E025E1
:10074000C5F8004109E0047804F01F050124AC401D
:10075000044D0678761145F8264070BD0CED00E09A
:1007600000E400E080E100E002490143024A116038
:10077000704700000000FA050CED00E07047000033
:1007800029B1064AD2690243044BDA6104E0034A04
:10079000D2698243014BDA617047000000100240C9
:1007A00029B1064A92690243044B9A6104E0034A64
:1007B00092698243014B9A61704700000010024029
:1007C00030B500210022002400232D4D6D6805F076
:1007D0000C0121B1042905D0082923D105E0294DB8
:1007E000056022E0274D05601FE0254D6D6805F48A
:1007F0007012234D6D6805F48034022505EB92429A
:100800001CB9214D554305600BE01D4D6D6805F485
:1008100000351DB11C4D5543056002E0194D55438F
:10082000056002E0174D056000BF00BF144D6D6804
:1008300005F0F0010909154D6B5C0568DD40456068
:100840000F4D6D6805F4E061090A104D6B5C456859
:10085000DD4085600A4D6D6805F46051C90A0B4D95
:100860006B5C4568DD40C560054D6D6805F4404131
:10087000890B074D6B5CC568B5FBF3F5056130BDB1
:100880000010024000127A0000093D002200002002
:1008900032000020704710B500F002F810BD0000D3
:1008A0000CB50020019000903348006840F480307F
:1008B0003149086000BF3048006800F40030009003
:1008C0000198401C0190009818B90198B0F5A06FEC
:1008D000F1D12948006800F4003010B101200090E7
:1008E00001E0002000900098012843D123480068CF
:1008F00040F01000214908600846006820F003001D
:1009000008600846006840F0020008601A48406825
:10091000194948600846406848600846406840F405
:10092000806048600846406820F47C1048600846B3
:10093000406840F4E81048600846006840F0807065
:10094000086000BF0C48006800F000700028F9D073
:100950000948406820F0030007494860084640689D
:1009600040F00200486000BF0348406800F00C00FF
:100970000828F9D10CBD0000001002400020024000
:10098000042808D14FF0E021096941F004014FF03B
:10099000E022116107E04FF0E021096921F0040134
:1009A0004FF0E022116170477047000010B5134806
:1009B000006840F00100114908600846406810498D
:1009C00008400E494860084600680E4908400B4937
:1009D00008600846006820F48020086008464068E7
:1009E00020F4FE0048604FF41F008860FFF753FFBB
:1009F0004FF000600449086010BD00000010024084
:100A00000000FFF8FFFFF6FE08ED00E010B531A191
:100A1000334800F0BFFA00BF32A13648FFF704FCAC
:100A20000028F9D000F0C8FA33A0FFF7F1FB3BA192
:100A30002B4800F0AFFA00BF3BA12E48FFF7F4FBB4
:100A40000028F9D000F0B8FA3AA0FFF7E1FB43A183
:100A5000234800F09FFA00BF44A12648FFF7E4FBBB
:100A60000028F9D000F0A8FA43A0FFF7D1FB4BA172
:100A70001B4800F08FFA00BF4BA11E48FFF7D4FBC4
:100A80000028F9D000F098FA48A0FFF7C1FB4FA169
:100A9000134800F07FFA00BF43A11648FFF7C4FBDC
:100AA0000028F9D000F088FA4BA0FFF7B1FB55A160
:100AB0000B4800F06FFA00BF5CA10E48FFF7B4FBD3
:100AC0000028F9D000F078FA5BA0FFF7A1FB00F056
:100AD000D9FA10BD41542B43455245473F0D0A00FA
:100AE000004400402B43455245473A20312C2031E9
:100AF0000000000038000020434D445F4D6F6465E6
:100B0000206E6574776F726B20726567697374729B
:100B10007920737563636573730D0A0041542B4329
:100B2000474154543F0D0A002B43474154543A3136
:100B300000000000434D445F4D6F6465206E657496
:100B4000776F726B206174746163686D656E742079
:100B5000737563636573730D0A00000041542B4382
:100B6000474143543D312C310D0A00002B4347418E
:100B700043543A2031000000434D445F4D6F64659B
:100B8000206E6574776F726B20616374697665207F
:100B9000737563636573730D0A00000041542B4342
:100BA0005354540D0A0000004F4B0000434D445F66
:100BB0004D6F646520656E61626C652041504E200A
:100BC000706172616D657465720D0A0041542B434A
:100BD000494943520D0A0000434D445F4D6F64651F
:100BE000206163746976617465206D6F62696C65FC
:100BF000207363656E6520737563636573730D0A97
:100C00000000000041542B43495053544152543D7D
:100C100022544350222C2234372E39332E33322E95
:100C20003332222C393939390D0A0000434F4E4EE8
:100C3000454354204F4B0000434D445F4D6F646566
:100C40002054435020706172616D65746572206339
:100C50006F6E6669670D0A0010B51CA11F4800F091
:100C600099F900BF1EA12348FFF7DEFA0028F9D04A
:100C700021A0FFF7CDFA29A1184800F08BF900BF99
:100C80002AA11C48FFF7D0FA0028F9D000F094F907
:100C9000C82000F0C3F92649104800F07BF9C820AD
:100CA00000F0BCF900F088F91A210C4800F063F953
:100CB00000BF20A10F48FFF7B7FA0028F9D01FA006
:100CC000FFF7A6FA00F078F910BD000041542B435D
:100CD00049505354415455530D0A000000440040FC
:100CE00053544154453A434F4E4E454354204F4B85
:100CF0000000000038000020434D445F4D6F6465E4
:100D00002054435020636F6E6E656374207374616A
:100D1000747573206973206F6B0D0A0041542B4367
:100D2000495053454E440D0A000000003E000000AB
:100D30003801002053454E44204F4B00434D445F43
:100D40004D6F6465205443502073656E64206F6B53
:100D50000D0A000010B540F22551064800F045F894
:100D600038B1044800F0FCF8C4B22146014800F054
:100D7000FCF810BD0038014010B540F225510B4879
:100D800000F033F888B1094800F0EAF80849094A48
:100D90001268885407480068401C064908600846E5
:100DA0000068FF2801D10020086010BD0044004009
:100DB000380000200000002021B1828942F4005256
:100DC000828104E082894DF6FF731A408281704768
:100DD00002460020B1F5007F00D100BF13880B4010
:100DE0000BB1012000E00020704770B502460024DE
:100DF00000230025002040F66A16B14200D100BF52
:100E0000C1F3421501F01F03012606FA03F3012D79
:100E100002D19689334006E0022D02D1168A334072
:100E200001E0968A33400C12012606FA04F4168873
:100E3000344013B10CB1012000E0002070BDF0B5CA
:100E40000346002400260025002040F66A17B94218
:100E500000D100BF1846C1F3421401F01F0601275C
:100E600007FA06F5012C01D10C3004E0022C01D167
:100E7000103000E014301AB107682F43076002E019
:100E80000768AF430760F0BD2DE9F04786B005461F
:100E90000E460024A24600BFA1460027B08900B13B
:100EA00000BF2F462C8A4CF6FF700440F0880443A4
:100EB0002C82AC894EF6F3100440B0883189084387
:100EC000718908430443AC81AC8A4FF6FF4004406B
:100ED000B0890443AC8201A8FFF772FC1F48874227
:100EE00002D1DDF810A001E0DDF80CA0A88900F423
:100EF000004040B10AEBCA0000EB0A10316849001B
:100F0000B0FBF1F807E00AEBCA0000EB0A10316809
:100F10008900B0FBF1F86420B8FBF0F0040120096F
:100F2000642101FB1089A88900F4004040B13220FF
:100F300000EBC900B0FBF1F000F00700044308E04B
:100F4000322000EB09106421B0FBF1F000F00F003B
:100F500004432C8106B0BDE8F08700000038014052
:100F600001468888C0F308007047C1F308028280F8
:100F7000704700BFFEE770B504460D46294620467F
:100F8000FFF7F3FF00BF80212046FFF721FF002875
:100F9000F9D070BD70B506460C46002500BF615DF6
:100FA0003046FFF7E8FF6D1C605D0028F7D170BD8B
:100FB000014600BF70470000002003E00021044A02
:100FC0001154401CFF28F9DD0021024A11607047CE
:100FD000380000200000002010B56FF00400FFF77B
:100FE000CFFC0A4800680A49B0FBF1F009490870D3
:100FF0000846007800EB4001C1EBC0104FF6FF71CE
:1010000001EAC0000449088010BD0000040000206F
:1010100000127A00180000201A0000200146114A30
:1010200012884A434FF0E0235A6100229A611A461F
:10103000126942F001021A6100BF4FF0E02210690C
:1010400000F001021AB100F48032002AF5D04FF00E
:10105000E022126922F001024FF0E0231A6100221F
:101060009A6170471A00002000BF054A128802F0FA
:101070004002002AF9D0C2B2014B1B1D1A807047F2
:101080000038014010B50020064908606420FFF7D1
:10109000C5FF01200449C1F894016420FFF7BEFF99
:1010A00010BD000094012342000023424FF4A060D1
:1010B000FFF75AFB00F048F8FFF7C4FA00F09CF87D
:1010C000FFF7DEFA4820FFF787FFC820FFF7A6FFEB
:1010D0000EA0FFF79DF8AA22CF211248FFF7B6F81D
:1010E00011A0FFF795F800F0DDF8FFF777F900BFE2
:1010F00012A11448FFF798F80028F9D0FFF75CFF19
:10110000FFF784FC01E0FFF7A7FDFCE75379737458
:10111000656D20696E697420737563636573730D03
:101120000A0000003801002044617461206C6F6186
:101130006420737563636573730D0A002B4349451F
:10114000563A00003800002000B587B00121042085
:10115000FFF726FB01218803FFF722FB4FF4007005
:10116000ADF8180018208DF81B0003208DF81A0028
:1011700006A91F48FFF7D9F94FF48060ADF81800B1
:1011800004208DF81B0003208DF81A0006A91848CA
:10119000FFF7CBF94FF4E13002900020ADF81400D6
:1011A0000C20ADF812000020ADF81000ADF80E00D4
:1011B000ADF80C0002A90F48FFF766FE01210D48AB
:1011C000FFF7FAFD012240F225510A48FFF737FEEA
:1011D00025208DF8040001208DF807008DF805000A
:1011E0008DF8060001A8FFF787FA07B000BD0000E0
:1011F000000801400038014000B587B001210420FB
:10120000FFF7CEFA01214804FFF7BAFA0420ADF83F
:10121000180018208DF81B0003208DF81A0006A96D
:101220001E48FFF782F90820ADF8180004208DF859
:101230001B0003208DF81A0006A91848FFF775F95E
:101240004FF4E13002900020ADF814000C20ADF80E
:1012500012000020ADF81000ADF80E00ADF80C0043
:1012600002A90F48FFF710FE01210D48FFF7A4FD6A
:10127000012240F225510A48FFF7E1FD26208DF8B2
:10128000040001208DF807008DF805008DF8060098
:1012900001A8FFF731FA07B000BD000000080140C7
:1012A0000044004010B500BF06A10748FEF7BCFF90
:1012B0000028F9D0FFF780FEFFF7E4FE03A0FEF759
:1012C000A7FF10BD474D3500380000204D6F6475F5
:1012D0006C20506F776572206F6E20737563636545
:1012E00073730D0A000000000813000800000020BE
:1012F000380000006C01000840130008380000208E
:1013000030080000880100080000000000A24A0424
:1013100000000000000000000102030406070809A5
:1013200000000000000000000000000000000102BA
:10133000030401020304060708090204060800006A
:04000005080001CD21
:00000001FF
